:020000040800F2
:1000000000200020A51B0008F5080008F7080008DC
:1000100000000000000000000000000000000000E0
:10002000000000000000000000000000F9080008C7
:100030000000000000000000FB080008FD080008A8
:10004000F51B0008F51B0008F51B0008F51B000850
:10005000F51B000881050008F51B0008F51B0008CA
:10006000F51B0008F51B0008F51B0008F51B000830
:10007000F1050008F51B0008F51B0008F51B00083A
:10008000F51B0008C505000800000000F51B00086E
:10009000F51B0008E1050008F51B0008F51B00082A
:1000A000F51B0008F51B0008F51B0008F51B0008F0
:1000B000F51B000800000000F51B00080000000010
:1000C00010B5064C2378002B07D1054B002B02D02E
:1000D000044800E000BF0123237010BD0C00002085
:1000E00000000000501C0008044B10B5002B03D08A
:1000F0000349044800E000BF10BDC04600000000F6
:1001000010000020501C0008002243088B4274D3CA
:1001100003098B425FD3030A8B4244D3030B8B4208
:1001200028D3030C8B420DD3FF22090212BA030C11
:100130008B4202D31212090265D0030B8B4219D3F2
:1001400000E0090AC30B8B4201D3CB03C01A524112
:10015000830B8B4201D38B03C01A5241430B8B425A
:1001600001D34B03C01A5241030B8B4201D30B0343
:10017000C01A5241C30A8B4201D3CB02C01A52416A
:10018000830A8B4201D38B02C01A5241430A8B422D
:1001900001D34B02C01A5241030A8B4201D30B0216
:1001A000C01A5241CDD2C3098B4201D3CB01C01A30
:1001B000524183098B4201D38B01C01A524143093A
:1001C0008B4201D34B01C01A524103098B4201D328
:1001D0000B01C01A5241C3088B4201D3CB00C01A95
:1001E000524183088B4201D38B00C01A524143080D
:1001F0008B4201D34B00C01A5241411A00D2014632
:10020000524110467047FFE701B5002000F006F8A4
:1002100002BDC0460029F7D076E770477047C04658
:10022000204842698023DB02134343611E4B196857
:10023000802212050A431A601968802292050A4337
:100240001A601968802212060A431A60196880220F
:1002500052040A431A60996980225201114399613C
:10026000C3698021C9010B43C361104B1868014366
:10027000196019681820014319601968143801437E
:10028000196059680A435A605A6802435A605968AB
:10029000E022D2000A435A601A6840210A431A60D9
:1002A0007047C0460010024000040048003800407B
:1002B000F0B5C64600B58CB00AAD08220021280072
:1002C00001F099FC1822002104A801F094FC274BAE
:1002D0005A698021C9030A435A615A690A40039244
:1002E000039A5A69802189020A435A615A690A406D
:1002F0000292029A5A698021C9020A435A615B69D3
:100300000B400193019B1A4F80239846BB62194A08
:1003100093680F218B4393609022D205D3680C39E8
:100320008B4301242343D36013688B4313600A94E7
:100330002C7100266E71AC71280000F08BFB4346D7
:100340000493059406960796089604A9380000F0D1
:10035000DAFA00220021052000F0F4FD052000F06B
:10036000F5FD0CB080BCB846F0BDC04600100240A0
:10037000000400480000014082B043001818002328
:10038000019304E0C046C046019B01330193019BE9
:100390008342F7D302B0704770B51420FFF7ECFF2B
:1003A0000A4CA36980252D022B43A3611420FFF77B
:1003B000E3FFA26980231B061343A3611420FFF708
:1003C000DBFFA3691D43A56170BDC046000800485E
:1003D00010B50400474A91698023DB050B43936104
:1003E00043B2002B49DB9022D205916980231B0682
:1003F0000B439361630648D59022D205916980230F
:100400005B010B439361A30647D53B4A9169802367
:100410009B000B439361E30646D5374A91698023DD
:100420005B000B439361FFF7B7FF230743D590228F
:10043000D205916980231B020B439361630742D568
:100440009022D205916980235B010B439361A3073E
:1004500041D5294A916980239B000B439361E407AE
:1004600040D5254A916980235B000B439361FFF7D8
:1004700093FF2248FFF780FF10BD9022D2059169BB
:1004800080231B020B439361B4E79022D20591694C
:1004900080235B050B439361B5E7174A916980237D
:1004A0009B040B439361B6E7134A916980235B0475
:1004B0000B439361B7E79022D205916980231B0615
:1004C0000B439361BAE79022D205916980235B05C3
:1004D0000B439361BBE7084A916980239B040B435C
:1004E0009361BCE7044A916980235B040B439361E9
:1004F000BDE7C0460008004800040048B80B0000F3
:1005000010B51B4B5969802292020A435A615969FE
:100510008022D2020A435A615969802212030A4397
:100520005A619022D20511688223DB050B431360C8
:10053000104A1168A023DB020B4313600E4A1168B6
:10054000A023DB050B4313600C48FFF715FF332096
:10055000FFF73EFF3220FFF73BFF0C20FFF738FF8D
:100560002820FFF735FF0120FFF732FF10BDC046FE
:1005700000100240000400480008004830750000E8
:1005800010B500F061FA64280AD90C4BDA6AF4233A
:10059000FF339A4208D0094BDA6A094B9A4207D0D6
:1005A000012000F0B1FD10BD044B054ADA62F7E707
:1005B000024BF422FF32DA62F2E7C046001000403C
:1005C000E703000010B5044800F0DCFE802103487A
:1005D00000F090FD10BDC0467000002000040048EF
:1005E00010B5024800F0CEFE10BDC0462800002025
:1005F00010B5024800F058FB10BDC04600010020B5
:1006000072B6FEE700B585B00C22002101A801F00A
:10061000F2FA2148214B0360002343608360C360EA
:100620000122026104214161037643768376C37619
:10063000C221FF31C16103629E39FF394354826296
:1006400000F06CFA002822D10623019380235B017D
:10065000029380235B0503930F4801A900F08CFBF4
:10066000002816D10D4A916880231B060B43936026
:100670000A4B9B68002BFBDB084A936801210B4364
:100680009360064B1B68DB07FBD505B000BDFFF789
:10069000B7FFFFF7B5FFC04600010020002401406E
:1006A00000B58FB0102200210AA801F0A4FA082298
:1006B000002108A801F09FFA1C22002101A801F0E6
:1006C0009AFA2048204B03600023436083601F4A4E
:1006D000C2600361836100F055FF002828D18023A8
:1006E0005B010A9317480AA901F06AF8002821D192
:1006F000144800F073FF00281ED1002308930993CB
:10070000104808A901F06CF9002817D16023019363
:1007100000230293039305930A48082201A900F0DD
:10072000CBFF00280CD1074801F00EFA0FB000BD36
:10073000FFF766FFFFF764FFFFF762FFFFF760FF59
:10074000FFF75EFFB8000020000400407FBB000000
:1007500010B50C480C4B03600C4B436000238360C6
:100760000B4AC260036143618033836100F00AFF7A
:10077000002804D1074B802292031A6010BDFFF7B6
:100780003FFFC04628000020004401403F1F0000FA
:10079000E703000000E100E000B583B0082200217B
:1007A000684601F028FA1248124B0360124B43606E
:1007B00000238360F423FF33C360743BFF3B8361FA
:1007C00000F0E0FE00280ED10023009301930848BA
:1007D000694601F005F9002807D1084B80229202F2
:1007E0001A6003B000BDFFF70BFFFFF709FFC0461B
:1007F00070000020001000403F1F000000E100E0FA
:1008000010B5244A136801218B431360214B1B68E8
:10081000DB07FBD4204A136801210B4313601E4BF6
:100820001B689B07FBD51C4A1368F8218B4378395A
:100830000B431360536B7F390B435363164B5B6B56
:100840009B07FBD5144B5A6BF8218A4378390A432E
:100850005A635A6870318A435A605A680F490A408D
:100860005A605A6803218A435A600B4B5B680C221A
:100870001A42FAD10A4801F08FF9032000F0A0F8DB
:10088000002805D1044A536B04218B43536310BDE8
:10089000FFF7B6FE0020024000100240FFF8FFFF05
:1008A00000127A0010B500F0B3F8FFF7A9FFFFF7C8
:1008B000B7FCFFF7FDFCFFF7A5FEFFF7F1FEFFF722
:1008C00047FFFFF769FFFFF71BFE074800F01EFD1B
:1008D000064800F01BFD0648082101F003F8044B10
:1008E0001B680022DA63FAE770000020280000206D
:1008F000B8000020FEE7FEE77047704710B500F033
:1009000097F810BD7047F0B5002216E00B699C46C1
:10091000C4682B006B435E00F618F743B443664689
:100920005E433443C4604C68022C26D04D68046892
:100930003C406B432343036001320C682300D340E7
:100940003BD00123934025001D401C42F4D04B684E
:10095000013B012BDAD88F6883682C006C4366005A
:100960003619B3437C43234383600E68CC684368E5
:10097000B343744323434360C8E7FF2D0DD84C694C
:10098000A446066A1C006C436C4325012D1BAE4334
:1009900065466C4334430462C8E74C69A446466A22
:1009A0002D0A2C006C436C436C4325012D1BAE4378
:1009B00065466C4334434462B8E70020F0BD000054
:1009C00010B504000F4B1978FA208000FFF79CFB4C
:1009D00001000D4B1868FFF797FB00F0C3FA0028E1
:1009E0000DD1032C01D901200AE0013000222100A1
:1009F000404200F0A7FA054B1C60002000E00120F7
:100A000010BDC046040000200000002008000020A7
:100A100010B5064A136810210B4313600320FFF73B
:100A2000CFFF01F015F8002010BDC04600200240A5
:100A3000034A1168034B1B785B1813607047C0466C
:100A40004001002004000020014B18687047C04698
:100A50004001002010B503000079002850D01A682A
:100A6000002A57D05879012818D0022820D0002811
:100A70000BD001209A79002A4BD0022A2CD0032ACD
:100A800034D0012A1ED0012043E023494C6894430E
:100A90004C601A680C6822430A60EBE71E4908683C
:100AA000904308601A68486802434A600020E1E702
:100AB0001949086802430A601A68486802434A6094
:100AC0000020D7E71C68144AD168A143D1601B6895
:100AD00091680B4393601CE01C680F4A9168A14326
:100AE00091601B68D1680B43D36012E019680A4A11
:100AF0009468214391601B68D1680B43D36008E080
:100B00001C68054A1168A1431160196853688B433A
:100B1000536010BD0020FCE70004014070B5041EC6
:100B200000D1B4E0836B002B00D180E0A36BDB0627
:100B300000D5A6E023689A680421080010401142FD
:100B400000D09EE0A26B53490A400631FF310A43B0
:100B5000A263996803220A40012A6ED0DA6818213C
:100B60008A43A1680A43DA60226813699B009B08E4
:100B700061680B4313612268D36847490B40D36017
:100B8000237E9B03627ED2031343A17E4A03134359
:100B9000A26A012A58D0802252011343E26813430B
:100BA0002269022A52D003432422A25C520013433A
:100BB000E27E012A4CD0E269C221FF318A4202D092
:100BC000216A0A4313432168CA681A43CA60E26A69
:100BD000802149058A420DD0012A0BD0022A09D072
:100BE000032A07D0042A05D0052A03D0062A01D0FB
:100BF000072A0AD120684169072291434161206890
:100C00004169E56A2A400A4342612268D268234961
:100C10000A409A422BD0A36B12229343023A134309
:100C2000A363E36B0F3A1343E36301202EE0C36336
:100C30003422835400F024FF78E71A68D2079AD44C
:100C4000DA68120497D489E70200A6E70420AAE72D
:100C5000002903D1802252021343ACE7A26B20216A
:100C60000A43A263E26B1F390A43E263A3E700234E
:100C7000E363A36B03229343023A1343A36300206D
:100C800004E0A36B10221343A363012070BD012075
:100C9000FCE7C046FDFEFFFF1902FEFFE7FF3F83B2
:100CA000704770477047000070B5040003681D6806
:100CB0005E686A0701D5720703D42A0727D5320771
:100CC00025D5A26BD20604D4A16B802292000A43E0
:100CD000A263D968C0221201114212D1A27E002A59
:100CE0000FD12A070DD59A6852072DD45A680C21C6
:100CF0008A435A60A36B1F4A13400432FF321343E6
:100D0000A3632000FFF7CCFF23680C221A602B0698
:100D100001D5330621D4ED0615D5F60613D5A36A01
:100D2000012B03D02368DB68DB0709D5E36B0222C4
:100D30001343E36323680E321A602000FFF7B2FF0B
:100D4000236810221A6070BDA36B20221343A36393
:100D5000E36B1F3A1343E363D3E7A26B80235B0289
:100D60001343A3632000FFF79CFF236880221A60CF
:100D7000D1E7C046FEFEFFFF30B583B0040000237C
:100D800001933433C35C012B00D17FE03423012273
:100D9000C254026893685B076AD448683C4B984227
:100DA0004BD0936A0D680120A84003439362E36A25
:100DB00080225205934213D0013B062B10D988683C
:100DC0002268556907232B40984209D050690723B0
:100DD00098435061206842698D682B4013434361FA
:100DE0000B681A00103A022A4CD82A4A1268102BB3
:100DF0000ED0112B09D080235B041343254A1360C6
:100E00000B68102B07D0002037E08023DB03F4E7CA
:100E100080231B04F1E7204B18682049FFF774F981
:100E200083001B185B00019302E0019B013B0193CF
:100E3000019B002BF9D100201FE0936A0D6801206F
:100E4000A840834393620B681A00103A022A1BD809
:100E5000104A1268102B09D0112B05D0104B1340EB
:100E60000C4A1360002008E00E4BF8E70E4BF6E743
:100E7000836B202213438363012034230022E25436
:100E800003B030BD0020F8E70020F6E70220F7E7C6
:100E900001100000082701400000002040420F0020
:100EA000FFFFFFFEFFFFBFFFFFFF7FFF70B50028C2
:100EB00011DB8308134DC0339B005C5903221040A3
:100EC000C000FC3216008640B44389010A408240CB
:100ED00022435A5170BD0F230340083B9B08063341
:100EE0009B00094A944663445C6803221040C0009A
:100EF000FC3215008540AC4389010A408240224300
:100F00005A60E7E700E100E000ED00E001388023EF
:100F10005B0498420FD2094A50600948036A1B02D9
:100F20001B0AC02109060B430362002393600733A9
:100F30001360002070470120FCE7C04610E000E08D
:100F400000ED00E010B5FFF7B1FF10BD002805DB94
:100F50001F22024001239340014A13607047C0469C
:100F600000E100E010B5FFF7D1FF10BDF0B583B090
:100F7000002356E086685F000324BC40A643CC688B
:100F8000BC4034438460446894434E68360901226F
:100F900032409A402243426053E0DE080836B600F1
:100FA000375805321A4092000F249440A7430C6929
:100FB000944022003A43325056E0032600E00026D7
:100FC000A64034003C4302329200444E9451444ABD
:100FD0009768EA433E00AE434C68E40201D53E0008
:100FE0002E433F4CA660E7683E0016404C68A402C2
:100FF00001D53E002E433A4CE66067683E0016403D
:101000004C68A40301D53E002E43354C666026682B
:1010100032404C68E40301D52A003243304C226050
:1010200001330C682200DA4056D001229A40250094
:1010300015401442F4D04E6803243440013C012C86
:1010400098D94C6803222240032A08D0C4685E0065
:101050000322B24094438A68B2402243C2604C6883
:1010600003222240022A98D004685E00032217005F
:10107000B740BC434F683A40B240224302604C68DC
:10108000C02292021442CBD0164CA669012216430C
:10109000A661A46922400192019A9A08941CA400B6
:1010A0000E4EA75903241C40A4000F26A640B743A8
:1010B0009026F605B04282D00B4EB04208D00B4EBF
:1010C000B04207D00A4EB04200D176E7052677E756
:1010D000012675E7022673E703B0F0BD000001406A
:1010E00000040140001002400004004800080048CD
:1010F000000C0048426913000B401B0491430B4352
:10110000836170477047000010B5054B5B6918425A
:1011100000D110BD024B5861FFF7F4FFF9E7C0465C
:101120000004014030B5036A012293430362056A5B
:10113000426883697324A3430C681C4302239D43C4
:101140008B682B43154DA84208D0154DA84205D0F9
:10115000144DA84202D0144DA84206D10825AB4335
:101160001D00CB682B430425AB430C4DA84208D08F
:101170000B4DA84205D00B4DA84202D00A4DA84203
:1011800005D10A4D2A404D6915438A692A434260B8
:1011900084614A684263036230BDC046002C01404E
:1011A000004001400044014000480140FFFCFFFFB7
:1011B00030B5036A184A13400362046A4268C3697F
:1011C0007325AB430D681D43144B1C408B681B02F9
:1011D0002343134CA04209D0124CA0420DD0124C14
:1011E000A0420AD0114CA0420FD106E0104C1C4086
:1011F000CB681B0223430F4C23400F4C22404C6909
:10120000240114438A69120122434260C5614A687D
:10121000C263036230BDC046FFFEFFFFFFFDFFFF5C
:10122000002C0140004001400044014000480140C2
:10123000FFF7FFFFFFFBFFFFFFCFFFFF30B5036AA4
:10124000134A13400362046A4368C269114D2A407D
:101250000D682D021543104A14408A681203224378
:101260000E4CA04208D00E4CA04205D00D4CA0421E
:1012700002D00D4CA04204D10C4C1C404B699B0188
:1012800023434360C5614B680364026230BDC046BE
:10129000FFEFFFFFFF8CFFFFFFDFFFFF002C014090
:1012A000004001400044014000480140FFBFFFFFF3
:1012B00030B5036A046A0125AC4304628469EF35E2
:1012C000AC43120122430A24A3430B43826103620D
:1012D00030BD000030B5036A1024A3430362846963
:1012E000036A054D2C4012032243A024A3430901A5
:1012F00019438261016230BDFF0FFFFF83687022D6
:1013000093430B43693A1343836070473D23C35CA7
:10131000012B26D13C330222C2540268D36801213A
:101320000B43D3600368114A93420FD08022D20549
:1013300093420BD00E4A934208D00E4A934205D0F6
:101340001A6801210A431A6000200BE099680722FD
:101350000A40062A07D01A6801210A431A600020B1
:1013600000E0012070470020FCE7C046002C01404F
:1013700000040040004001407047704770477047CC
:101380007047704710B50400026813699B070FD5BA
:10139000D3689B070CD503235B42136104330377A7
:1013A00003689B699B0763D0FFF7E9FF002323775E
:1013B000226813695B0712D5D3685B070FD5052335
:1013C0005B4213610733237723689A69C0239B002C
:1013D0001A4253D02000FFF7D2FF00232377226860
:1013E00013691B0710D5D3681B070DD509235B4272
:1013F00013610D3323772368DB699B0745D02000F9
:10140000FFF7BDFF0023237722681369DB0612D59F
:10141000D368DB060FD511235B42136119332377A1
:101420002368DA69C0239B001A4235D02000FFF7F9
:10143000A6FF0023237722681369DB0702D5D36850
:10144000DB0730D4226813691B0602D5D3681B065C
:1014500030D4226813695B0602D5D3685B0630D4AA
:10146000226813699B0602D5D3689B0630D410BD51
:10147000FFF784FF2000FFF783FF97E72000FFF7C7
:101480007DFF2000FFF77CFFA7E72000FFF776FF36
:101490002000FFF775FFB5E72000FFF76FFF200082
:1014A000FFF76EFFC5E702235B4213612000FFF7E1
:1014B00064FFC7E781235B421361200000F0C7FA95
:1014C000C7E741235B4213612000FFF75AFFC7E7DC
:1014D00021235B421361200000F0B8FAC7E7000047
:1014E0000368214A904206D08022D205904202D061
:1014F0001E4A904203D1702293434A6813431A4A0A
:10150000904212D08022D20590420ED0174A9042CB
:101510000BD0174A904208D0164A904205D0164A7E
:10152000904202D0154A904203D1154A1A40CB6826
:101530001343802293434A69134303608B68C36259
:101540000B688362084B984208D00A4B984205D03A
:10155000094B984202D0094B984201D10B690363B1
:10156000012343617047C046002C01400004004045
:10157000002000400040014000440140004801407C
:10158000FFFCFFFF70B5041E26D03D23C35C002B7B
:101590001CD03D2502236355210001C9FFF7A0FFA0
:1015A00001234622A354083AA3540132A354013222
:1015B000A3540132A3540132A3540132A354013283
:1015C000A3540132A3546355002070BD3C33002264
:1015D000C25400F085FADCE70120F6E770B5041E7E
:1015E00026D03D23C35C002B1CD03D250223635530
:1015F000210001C9FFF774FF01234622A354083AD2
:10160000A3540132A3540132A3540132A354013232
:10161000A3540132A3540132A3540132A35463559D
:10162000002070BD3C330022C254FFF7A5FEDCE76A
:101630000120F6E770B5036A102293430362026A41
:1016400044688369164D2B400D682D021D432023ED
:101650009A438B681B011343124A904209D0124AE5
:1016600090420ED0114A90420BD0114A904210D1B4
:1016700007E0802293431E00CB681B013343403AAE
:1016800093430C4A14404A69920022438C69A40097
:101690001443446085614A688263036270BDC0463A
:1016A000FF8CFFFF002C014000400140004401403E
:1016B00000480140FFF3FFFF70B504000D003C231C
:1016C000C35C012B00D16AE03C230121C154082AEC
:1016D00050D01CD8002A38D0042A16D1006829001E
:1016E000FFF7A8FF2268916980231B010B439361D8
:1016F000226893692B490B40936121688B692A69A1
:10170000120213438B6100201BE0080019E00C2A31
:1017100016D100682900FFF791FD2268D169802366
:101720001B010B43D3612268D3691E490B40D3616F
:101730002168CB692A6912021343CB61002000E0C3
:1017400001203C230022E25470BD00682900FFF70D
:10175000E9FC2268936908210B439361226893692D
:1017600004398B4393612268936929690B43936120
:101770000020E6E700682900FFF71AFD2268D36918
:1017800008210B43D3612268D36904398B43D361A9
:101790002268D36929690B43D3610020D1E7022075
:1017A000D2E7C046FFFBFFFF30B58468034D2C40F5
:1017B0001B0213430B432343836030BDFF00FFFF35
:1017C00010B5040008003C23E35C012B00D177E056
:1017D0003C230122E25401330132E254226893682F
:1017E00038490B409360016860294FD029D84029BF
:1017F00057D00CD9502922D14168C2682068FFF720
:1018000057FD20685021FFF779FD002005E02029D1
:101810000ED009D930290BD001203D230122E254FA
:10182000013B0022E25410BD002901D0102904D14F
:101830002068FFF763FD0020EFE70120EDE70120BE
:10184000EBE780225201914236D0802292019142F0
:101850000DD181684268C3682068FFF7A5FF226840
:1018600091688023DB010B4393600020D5E770294A
:1018700024D181684268C3682068FFF795FF226819
:10188000936877210B4393600020C6E74168C268E4
:101890002068FFF71FFD20686021FFF72FFD002063
:1018A000BBE74168C2682068FFF702FD206840215D
:1018B000FFF724FD0020B0E70020AEE70120ACE7F1
:1018C0000220B0E78800FFFF10B51F231940012454
:1018D0008C40036AA3430362036A8A401343036292
:1018E00010BD000010B50400002936D13E23C35CB2
:1018F000013B5A1E9341DBB2002B62D1002945D136
:101900003E330222E25420680122FFF7DDFF236804
:101910002E4A934208D02E4A934205D02D4A934234
:1019200002D02D4A934204D1596C802212020A43FC
:101930005A642368254A934238D08022D2059342C4
:1019400034D0264A934231D0214A93422ED01A688D
:1019500001210A431A60002034E0042908D0082934
:101960000DD04123C35C013B5A1E9341DBB2C3E758
:101970003F23C35C013B5A1E9341DBB2BCE74023CB
:10198000C35C013B5A1E9341DBB2B5E7042905D085
:10199000082907D041230222E254B4E73F23022260
:1019A000E254B0E740230222E254ACE799680722F0
:1019B0000A40062A07D01A6801210A431A6000204B
:1019C00000E0012010BD0020FCE7C046002C0140D3
:1019D0000040014000440140004801400004004034
:1019E00030B53C23C35C012B28D03C230122C254D8
:1019F00001330132C25403685C689D686E329443BF
:101A00000A6822435A6003680D4A934209D0802233
:101A1000D205934205D00B4A934202D00A4A934220
:101A200004D1802295434A682A439A603D230122CB
:101A3000C254013B0022C254002030BD0220FCE70A
:101A4000002C0140000400400040014070477047F6
:101A500082B00A4B996901221143996199690A4040
:101A60000092009ADA69802149050A43DA61DB694C
:101A70000B400193019B02B07047C046001002402A
:101A800010B588B004001422002103A800F0B3F8B8
:101A90002268114B9A4201D008B010BD0F4B9A69D1
:101AA000802189000A439A619A690A400192019A49
:101AB0005A69802189020A435A615B690B4002938B
:101AC000029B402303933D3B0493902003A9C00550
:101AD000FFF74CFAE0E7C046002401400010024046
:101AE00084B00368144A934207D0144A93420ED03C
:101AF000134A934215D004B07047124AD1690223A9
:101B00001943D161D26913400193019BF3E70D4A58
:101B1000D16910231943D161D26913400293029B0A
:101B2000E9E7084B9A69802189020A439A619B6917
:101B30000B400393039BDEE70004004000100040CD
:101B4000004401400010024010B586B00400142289
:101B5000002101A800F04FF822680C4B9A4201D0F6
:101B600006B010BD0A4B5A698021C9020A435A6166
:101B70005B690B400093009B0123019302220292B8
:101B8000059301A90348FFF7F1F9E9E700040040D4
:101B90000010024000040048014B18607047C04626
:101BA000000000200D488546FEF7ACFE0C480D49AC
:101BB0000D4A002302E0D458C4500433C4188C42A8
:101BC000F9D30A4A0A4C002301E013600432A2420E
:101BD000FBD300F019F8FEF765FEFEE700200020B9
:101BE000000000200C000020701C00080C000020E9
:101BF00044010020FEE703008218934200D17047A1
:101C000019700133F9E7000070B500260C4C0D4D3A
:101C1000641BA410A64209D1002600F019F80A4C52
:101C20000A4D641BA410A64205D170BDB300EB5849
:101C300098470136EEE7B300EB5898470136F2E7D4
:101C4000681C0008681C00086C1C0008681C000860
:101C5000F8B5C046F8BC08BC9E467047F8B5C0460B
:081C6000F8BC08BC9E46704769
:041C6800E900000887
:041C6C00C1000008AB
:0C1C700000127A000100000004000000D7
:0400000508001BA52F
:00000001FF
