:020000040800F2
:100000000020002009420008312C0008332C000891
:1000100000000000000000000000000000000000E0
:10002000000000000000000000000000352C000867
:100030000000000000000000372C0008392C0008E8
:100040005942000859420008594200085942000824
:10005000594200081D28000859420008594200086A
:100060005942000859420008594200085942000804
:10007000D528000859420008594200085942000892
:100080005942000861280008000000005942000899
:10009000594200087D2800085942000859420008CA
:1000A00059420008594200085942000859420008C4
:1000B00059420008000000005942000800000000FA
:1000C00010B5064C2378002B07D1054B002B02D02E
:1000D000044800E000BF0123237010BD640000202D
:1000E00000000000AC490008044B10B5002B03D001
:1000F0000349044800E000BF10BDC04600000000F6
:1001000068000020AC490008002243088B4274D3E9
:1001100003098B425FD3030A8B4244D3030B8B4208
:1001200028D3030C8B420DD3FF22090212BA030C11
:100130008B4202D31212090265D0030B8B4219D3F2
:1001400000E0090AC30B8B4201D3CB03C01A524112
:10015000830B8B4201D38B03C01A5241430B8B425A
:1001600001D34B03C01A5241030B8B4201D30B0343
:10017000C01A5241C30A8B4201D3CB02C01A52416A
:10018000830A8B4201D38B02C01A5241430A8B422D
:1001900001D34B02C01A5241030A8B4201D30B0216
:1001A000C01A5241CDD2C3098B4201D3CB01C01A30
:1001B000524183098B4201D38B01C01A524143093A
:1001C0008B4201D34B01C01A524103098B4201D328
:1001D0000B01C01A5241C3088B4201D3CB00C01A95
:1001E000524183088B4201D38B00C01A524143080D
:1001F0008B4201D34B00C01A5241411A00D2014632
:10020000524110467047FFE701B5002000F0F0F8BA
:1002100002BDC0460029F7D076E7704703460B437E
:100220007FD4002243088B4274D303098B425FD3EF
:10023000030A8B4244D3030B8B4228D3030C8B421B
:100240000DD3FF22090212BA030C8B4202D3121201
:10025000090265D0030B8B4219D300E0090AC30BD6
:100260008B4201D3CB03C01A5241830B8B4201D383
:100270008B03C01A5241430B8B4201D34B03C01A6C
:100280005241030B8B4201D30B03C01A5241C30AE4
:100290008B4201D3CB02C01A5241830A8B4201D355
:1002A0008B02C01A5241430A8B4201D34B02C01A3F
:1002B0005241030A8B4201D30B02C01A5241CDD2E4
:1002C000C3098B4201D3CB01C01A524183098B422F
:1002D00001D38B01C01A524143098B4201D34B0118
:1002E000C01A524103098B4201D30B01C01A52417B
:1002F000C3088B4201D3CB00C01A524183088B4202
:1003000001D38B00C01A524143088B4201D34B00EA
:10031000C01A5241411A00D201465241104670475C
:100320005DE0CA0F00D04942031000D34042534061
:1003300000229C4603098B422DD3030A8B4212D321
:10034000FC22890112BA030A8B420CD38901921153
:100350008B4208D3890192118B4204D389013AD090
:10036000921100E08909C3098B4201D3CB01C01A65
:10037000524183098B4201D38B01C01A5241430978
:100380008B4201D34B01C01A524103098B4201D366
:100390000B01C01A5241C3088B4201D3CB00C01AD3
:1003A000524183088B4201D38B00C01A5241D9D2EB
:1003B00043088B4201D34B00C01A5241411A00D26C
:1003C0000146634652415B10104601D34042002B68
:1003D00000D54942704763465B1000D3404201B5E7
:1003E000002000F005F802BD0029F8D016E770479C
:1003F0007047C0468446100062468C46190063462A
:1004000000E0C0461FB500F069FF002801D40021BC
:10041000C8421FBD10B500F0A9FE4042013010BD1A
:1004200010B500F05BFF002801DB002010BD0120AB
:1004300010BDC04610B500F051FF002801DD0020BE
:1004400010BD012010BDC04610B500F0D3FE00283D
:1004500001DC002010BD012010BDC04610B500F029
:10046000C9FE002801DA002010BD012010BDC046E1
:10047000F0B557464E464546DE46E0B583B000909F
:1004800001910C034F00CE0F610A009C1D03640F05
:100490000C43009900920193C80059004B0D9946F6
:1004A000009A019B6D0AD90F530F2B439A46009B6C
:1004B0007F0DDA0094464A46B046BA1A8E4200D101
:1004C000B0E0002A00DC78E04946002900D1E9E0EC
:1004D000C9498F4200D195E10125382A16DC8021D7
:1004E000534609040B439A461F2A00DDE7E1202109
:1004F00055468B1A61469D40D1400D436146994057
:100500004B1E99415346D3400D43E41A451BA84264
:1005100080414042241A230200D40FE16402640A9D
:10052000002C00D139E1200001F03AFE0300083B25
:1005300020212800CA1AD0409C4002009D4022433E
:100540009F4200DD73E1D81B0130091A2C008D4059
:10055000C4406B1E9D411300C2408B4025430027C1
:1005600014001D436B0709D00F232B40042B05D02B
:100570002B1DAB42AD416D4264191D00230200D416
:100580002DE19D4A0137974200D1D3E046469B4971
:10059000ED0821404A072A437C054D022D0B640DCE
:1005A00024052C43F60734431000210003B0F0BCAF
:1005B000BB46B246A946A046F0BD002A00D184E061
:1005C0004A46D21B002F00D06DE12500054300D123
:1005D00027E1561E012A00D13BE2874DAA4200D1F5
:1005E0006AE20125382E12DC32001F2A00DDF8E114
:1005F00020262500B61A07005346B040D440B54027
:10060000D740461EB0411B1B9A463D4305436246F8
:10061000551BAC459241534652420E004F46884608
:100620009C1A78E7002A00DC8EE04946002975D143
:1006300061465346194300D1F6E0511E012A00D10C
:1006400091E16D4DAA4200D1DCE00125382914DC8E
:100650000A001F2A00DDA2E120215346891A8B409F
:100660001D006346D3401D4363468B4019004B1E5B
:1006700099415346D3400D43E4182D1885428041DB
:1006800040422418230259D55B4B01379F4251D079
:1006900001215A4B6A081C4029400A43E5071543CB
:1006A00064085FE761465346194300D1BCE0511E20
:1006B000012A00D164E1504DAA4200D16AE101252E
:1006C000382900DD22E70A000EE74D4A7D1C15425D
:1006D00000D0D0E025006246534605431A43002F60
:1006E00000D037E1002D00D1A8E1002A00D16AE155
:1006F0006346C51A5346E21AA8429B415B42D31A8D
:100700001A0200D403E263461D1AAC4592415346D7
:1007100052421C1B0E008846A41A23E736498F421A
:1007200070D00125382AA8DC8021534609040B43E8
:100730009A468EE73C000025002231E707232B4034
:10074000002B00D010E793E0002A74D04A46D21B59
:10075000002F00D1C7E02849894500D185E1012556
:10076000382A12DC802109040C431F2A00DDABE18A
:1007700020212500891A070088408D40D740411E5E
:100780008841D4403D430543A244654465459241B8
:100790005242524414004F4674E7280001F000FD15
:1007A000030018331F2B00DCC2E62A000838824001
:1007B0009F4200DDA9E0DB1B581C1F2800DCACE1D8
:1007C00015001F3BDD40202805D040231B1A9A400E
:1007D000531E9A411543072300272B40B0E7ED082D
:1007E000054B62072A43E4089F420FD02403250BE0
:1007F0007C05640DD4E6C046FF070000FFFF7FFFC5
:10080000FE070000C00862070243E4081300234308
:1008100000D186E180252D0325432D03C34C2D0BEC
:10082000BEE6604654460E001700C508D8E7C04C27
:10083000FF1A144096E6BF4A791C11426BD1220080
:100840000243002F00D0DBE0002A00D12DE16246F8
:1008500053461A4300D1B6E06346C518854280412D
:10086000544440422418230202D50F00B04B1C40D0
:100870003A002800D8E76246851AA84292415346BA
:1008800052429146E31A1A004B46D21A130091467F
:100890001A0254D44A464C462A4300D040E6002669
:1008A000002400257CE6A14DA94500D190E001255A
:1008B000382A00DDABE680252D042C4395E6110097
:1008C00055462039CD40A946202A06D0402153461E
:1008D0008A1A934062461A43944665466B1E9D41B0
:1008E0004B461D4312E62100014300D1C4E0511ED6
:1008F000012A00D1FBE08D4DAA4200D1B5E00125CF
:10090000382900DD41E70A002FE7894CFF1A14401F
:100910006207E4086AE7854A914200D1E3E0634652
:10092000C218824280412300404253441B18DD0715
:100930005C080723520815430F002B4000E763466D
:100940001D1AAC459241534652421C1B0E0088466C
:10095000A41AE5E5002D00D091E0002A38D18024CA
:100960000026240356E76346C51885428041544457
:10097000404224180127230200D4DFE6022787E63D
:100980006346C51AA842804153464042E41A0127F3
:10099000241AC0E56207C0080243E40836E71100E4
:1009A00053462039CB409946202A06D04021534651
:1009B0008A1A934062461A43944665466B1E9D41CF
:1009C0004B461D4359E66207C0080243E4080DE7A1
:1009D00053465A076346D80853460E000243DC08C4
:1009E00014E715002600203DEE40202A03D04025C4
:1009F000AA1A94402043421E90410500354306E662
:100A0000002A7CD062465346C0081A4300D1FAE659
:100A1000620710438022E4081203144208D0D90868
:100A2000114205D16346D80853460C005B071843B2
:100A3000420FC000C00852070243E7E6002A00D177
:100A40002DE76346D80853465A070E000243DC08D8
:100A5000CCE663461D1AAC459241534652421C1BDC
:100A60000E008846A41A013755E56346D908534657
:100A70005A070A43DC08C9E660465446D4E6C00873
:100A8000002A00D1BFE6620710438022E408120367
:100A90001442CDD0DD081542CAD16346D80853466A
:100AA0005B070E002C001843C2E76346D908534683
:100AB0005A070A43DC0899E66346D80853465A07A2
:100AC0000E000243DC08A1E6110027002039CF40C8
:100AD000202A03D040218A1A94402043421E90418C
:100AE00005003D4351E60C000025002258E5604416
:100AF00060459241544452420500A4183AE75346D7
:100B00005A076346D90853460A43DC087EE61A00B2
:100B10001C002A4300D0ABE6C1E620210025091ABB
:100B200019E500220025014C3AE5C046FF07000008
:100B3000FFFF7FFFFE070000F0B5DE464546574643
:100B40004E46E0B587B0009201930B031B0B9B460A
:100B5000CA0F4B00040080465B0D029200D16AE18F
:100B6000D44A934200D18CE15946420FC9000A434E
:100B7000802109041143C2009046CF4A894692461B
:100B80009A44002300240393009E019F3B031B0B08
:100B90009B467B0030005B0DFD0F002B00D128E150
:100BA000C44A934200D177E15946720FC9000A4303
:100BB0008021090411438B46BF49F2008C465146FF
:100BC0006344CB1A9A460023029E6E400F2C27D80E
:100BD000BA49A40009598F46CB464246029E039B60
:100BE000022B16D0032B00D1A6E2012B00D0DFE0B0
:100BF00000220023002490461B052343F6073343BD
:100C00004046190007B0F0BCBB46B246A946A04614
:100C1000F0BD002200249046A64BEDE72E00DFE752
:100C2000CB4500D2D4E100D1CFE101235B429C4609
:100C3000444648460027E2445B46150E1B021D430E
:100C4000190C2B04120200951D0C9146029103957C
:100C5000FFF7E0FA02006A430B04210C80461943B7
:100C60008A4209D9009D0123AC465B4261449C46FF
:100C7000E0448D4200D8FBE1881A0299FFF7CAFAD6
:100C8000039A240442430904240C03000C43A242A7
:100C900006D90099013B8C466444A14200D8E1E1A9
:100CA000A01A424612041A4393464B4659461B0C5F
:100CB0001D0004930B0449460904090C0C001B0C8D
:100CC0005C43120C6B43884651436A43250CAC4687
:100CD0005B186344994203D9802149028C466244DF
:100CE000190C24041B04240C8A181C19904202D3EA
:100CF00016D1A74214D25B46009D013B4F44059399
:100D00004F459B41AC465B426344C018854200D3CB
:100D1000A1E1824200D9F6E100D1F1E1059B9B46B9
:100D20003C1BA742BF41009D801A7F42C01B8542E9
:100D300000D1D0E10299FFF76DFA039A0B04424308
:100D4000210C070019438A4200D978E1881A0299D8
:100D5000FFF760FA039A240442430904240C0300B9
:100D60000C43A24200D95DE14146A41A3A041A4359
:100D7000049D13041B0C594347466B439C46100CBF
:100D800047430B0CBC44634468439F4203D980250E
:100D90006D02AC4660441F0C09041B04090C3F188B
:100DA0005B18BC4200D202E100D1FDE001231A43EE
:100DB000434B5344002B00DCAEE0510700D098E1D8
:100DC0005946C90106D559463E4B194080238B46EA
:100DD000DB0053443C498B4200DD1AE75946D208F8
:100DE000490711435A465B0554028846240B5B0DA4
:100DF00002E75A46009B1A4300D17EE05B46002B77
:100E000000D100E1584601F0CBF9020003000B3A93
:100E10001D27009EBA1A19005846D6400839884046
:100E2000320002439346009A8A40284953448A4636
:100E30009A440023C8E65B460343994656D05B4676
:100E4000002B00D1CDE0584601F0AAF90B235B42FC
:100E50009C460200844466461D239B1B260011000D
:100E60005846DE4008398840330003439946230042
:100E70008B409846164B00249B1A9A4600230393F6
:100E800082E65A46024391462AD100229A4602231C
:100E900090460824039377E65A46009B1A430D4B6D
:100EA0009C46E244002A17D102231C4300239B46A0
:100EB000023389E6FF07000001FCFFFFCC49000870
:100EC000FF030000FFFFFFFEFE070000F30300002A
:100ED0000DFCFFFF01F8FFFF032332001C4373E604
:100EE0009A460323D9460C2403934DE600239846E3
:100EF0009A4601330424039346E601231C4300234E
:100F00009B46013360E60023802498460026924BDE
:100F1000240371E6012252420121C91A382900DD59
:100F200066E61F2900DCABE01F204042C31A58468A
:100F3000D8400300202904D05846884951448840AD
:100F40000243511E8A411A4307231900002411400D
:100F500013420CD00F231340042B00D1F9E0111DD4
:100F600091429B410A005B4259075B021C0BD2086D
:100F70000A43904600233FE680244B462403234245
:100F800009D05B46234206D11C4324032E00904621
:100F9000714B240B30E680244B4624031C4324036E
:100FA000029E6D4B240B27E6002B00D100E7009832
:100FB000511E84466444844200D284E0BC4200D284
:100FC000AEE000D1C1E00A00F0E6424500D92CE6CF
:100FD0004B46DC07580843465B081C434346DF0783
:100FE0002AE601F0DDF815239C468444020063469E
:100FF00020321C2B00DC2EE7230008388340994662
:101000000023984636E701F0CBF8020003001532C2
:1010100020331C2A00DCFBE60099083881400022BE
:101020008B4602E70099013B8C466444A14200D9FB
:101030009AE6A24200D897E6831E644494E6AC4642
:101040006144013F8D4200D980E68A4200D87DE6A6
:10105000871E61447AE6854200D05FE6B94500D933
:101060005CE656E6A24200D81AE6831E644417E600
:101070008A4200D800E6AC46831E98466144FBE5F0
:1010800037481400504482405B4617008340CC40F0
:101090007A1E974123433B431A005B46CB405107DE
:1010A00009D00F211140042905D0111D9142924110
:1010B00052429B180A00190200D455E7002201236E
:1010C0000024904698E50A00BC4200D06EE64B45ED
:1010D00000D06BE66CE6234B234A5344924500DA7A
:1010E00018E7012149420A1D8A42894149428B443D
:1010F00066E60F211140042900D161E61100F2E7F4
:10110000BC4200D80AE602235B429C4600994F4449
:101110004F459B41E3448C465B426344C018FFE566
:101120004946009D480048458941AC4649426144D2
:101130008146023A6418C7E780245B4624031C43B7
:1011400024039046044B240B56E59945E8D30A0046
:10115000BDE7002308E7C046FF0700003E0400008B
:101160001E040000FF03000002FCFFFFF0B557461D
:10117000DE464E464546E0B50D000400E80F8346C6
:101180000903D80F090B824619488C461F036900D2
:101190005E00490D3F0B760D814218D086420FD07C
:1011A0000120B1420DD1BC450BD1944209D1D345A8
:1011B0001CD0002905D160462043431E984100E021
:1011C0000120F0BCBB46B246A946A046F0BD0120B6
:1011D0008E42F6D1614639430F0017432743F0D1C1
:1011E0005B465246981A431E9841EAE70020E8E71A
:1011F000FF070000F0B557464E464546DE46E0B5CF
:101200000D000F03390B83B0040080460191580094
:10121000E90F314F400D8C466E001903824691460E
:10122000760D090BD80FBE421FD0BA450FD0002E45
:101230002FD15546019E3443002D27D10A433AD081
:10124000002C45D100281AD10120404217E011435B
:101250003BD1002E02D1019F2743F3D0844509D111
:101260006346002BF0D0604609E0019F27432CD154
:10127000B24524D063460220013B1840013803B038
:10128000F0BCBB46B246A946A046F0BD002CD9D062
:10129000E4E75446002CEDD08445EBD15645E9DC1B
:1012A000DEDB019B8B42E5D8DAD1C845E2D80020CD
:1012B000C845E4D2D4E70020002CE0D0DAE711439F
:1012C00003D18445D6D10020D9E702204042D6E799
:1012D0008445E6D0CEE7C046FF070000F0B557468C
:1012E0004E464546DE46E0B50D000F03040080463D
:1012F000E80F390B844683B05800304F400D019100
:101300001E03690082469146490D360BD80FB9423B
:1013100020D0BA450FD000292BD101990C4351465A
:10132000002937D1324338D0002C44D1002819D1BC
:101330000120404216E0164313D1002902D1019F3B
:101340002743F3D0844520D063460220013B184058
:10135000013807E0019F274303D18A45F4D11643A2
:101360001FD0022003B0F0BCBB46B246A946A0463F
:10137000F0BD5446002CE7D08445E5D15145E3DC6F
:1013800003DB019BB342DFD80FD06346002BCFD0E5
:101390006046E7E7002CC9D0D4E70020002CE1D05C
:1013A000D2E78445D0D10020DCE7C845CCD8002066
:1013B000C845D7D2E9E78445E3D0C5E7FF07000079
:1013C000F0B55746DE464E464546E0B51F000B03D6
:1013D0001B0B16009A46CA0F4B000400934687B0B9
:1013E0005B0D00D1D5E0BB4A934200D1F8E05146F5
:1013F000420FC9000A43802109041143C2009146EB
:10140000B54A8A469D180023984602933C037B0008
:10141000FA0F3000240B5B0D009200D196E0AD4A2C
:10142000934231D0720FE4002243802424041443F9
:10143000A94AF000944663445B195A1C0192424643
:1014400000260A2A42DC5A4600994A409346424600
:10145000022A32DC013A012A00D949E1022E00D1E8
:10146000CAE0012E3DD100230024002210005A467C
:101470001B052343D2071343190007B0F0BCBB463A
:10148000B246A946A046F0BD924B2643EB18002E6B
:1014900000D1BBE00322414611435A4688460099D9
:1014A0004A40802109018C4629006144019141464E
:1014B0000A2900DD33E2934603264246012797407E
:1014C000A6213A00C9000A400F4231D0029E022EE6
:1014D00000D135E2032E00D1D2E154464846012E18
:1014E000C1D0019A7D4B94466344002B00DCC0E0E0
:1014F000420709D00F220240042A05D0021D824271
:101500008041404224181000E20106D5744B019A34
:101510001C4080239446DB006344724A93426BDC98
:101520006207C00864025B050243240B5B0D9DE764
:10153000902189000F4263D188223A4200D1D7E03E
:10154000009BA2469B4681460296BFE72300334399
:1015500000D17FE0002C00D1ADE1200000F020FEA2
:10156000020003000B3A1D201900821A30000839CE
:10157000D0408C400443300088405B4AEB1A9446CC
:1015800063445A1C0192424600260A2A00DC5AE7AC
:101590009CE753460343994654D05346002B00D151
:1015A00077E1504600F0FCFD0B235B429C460200B5
:1015B000844411005046083988401D238046604607
:1015C0001B1A2000D8400300404603439A462300DC
:1015D0008B4099460023444D9846AD1A029315E777
:1015E00052460243914626D100221D000223924614
:1015F00008329046029309E700240022354B35E774
:10160000002380249B462403324B2FE702224146CD
:1016100011438022120194462A00624488460192B6
:101620000A2900DD52E75A460020009904004A408A
:10163000934602260BE70C221D00032381469046A9
:101640000293E3E600239A4604339846033B0025C1
:101650000293DBE6424601331A432B0090465A1CA4
:10166000019242460024002001260A2A00DCEAE614
:101670002CE70122D21A382A00DDF4E61F2A00DC0A
:101680002AE11F214942CB1A2100D9400B00202A10
:1016900005D0164A019D94466544AC402043421E45
:1016A00090411843072319000024014003420CD045
:1016B0000F230340042B00D140E1031D8342A441CA
:1016C0001800644261076402240BC20800230A4325
:1016D000CCE6C046FF07000001FCFFFFFF0300004F
:1016E000FFFFFFFEFE0700000DFCFFFF3E040000B1
:1016F00049464A460904090C0D00160C020C000468
:10170000000C4543AC4605007543A84615000F0084
:101710007543009202952A00009D6F4365462D0C8B
:10172000A94647444F44B84505D9150080225202C6
:101730009046454402953D0C039565462D043F04B3
:101740002D0CAC463D0065440495250C2404240C66
:10175000AC4625007543A84665460F0069434144E1
:1017600089466743390C49446E43884503D9802232
:101770005202904646440D0CA84635004544059556
:10178000039D3F04A8463F0C0904C91988444546F7
:10179000039555462E04360C2F0C350045437843EF
:1017A00081463800A8462D0CAA46009A5043724341
:1017B0004A445244914503D980256D02A9464844C4
:1017C000150CA94645462D042D0CA84665467D43BB
:1017D000120448449044A9463200654662436E4371
:1017E0007C43170C3619BF19BC4203D9802464020C
:1017F000A446E144029C039EA446059D66448E4295
:101800008941AC4612043C04120CA21862444942BD
:1018100054184644A4464645A44182466442A04624
:10182000AA4292418C458941E244D0444942524205
:101830000A43A045A44182458941644249420C4380
:1018400041463F0CD2191219CC0D0499700208437D
:10185000411E884141464A44F60D52023043490236
:1018600014430843D20135D50122430802401343F3
:10187000E0071843640834E6009BA2469B46814675
:101880008024534624031C4324034A462E4B240B36
:10189000ECE500F085FC15239C4684440200634679
:1018A00020321C2B00DC84E60023994623000838F4
:1018B00083409A468EE600F073FC02000300153266
:1018C00020331C2A00DC4EE602003400083A0020D7
:1018D000944052E6019304E61C4B21009C46030011
:1018E000019DD3406544A94019430300AB40581EF5
:1018F000834119430800D4404B0709D00F230B4004
:10190000042B05D00B1D8B42804140422418180047
:10191000230200D4D6E6012300240022A6E50F29E5
:10192000AAD1802352461B031A42A9D01C42A7D138
:101930001C43009B02009B46034B97E50024C1E635
:101940000024014B220091E5FF0700001E04000067
:10195000F0B54E464546DE465746E0B585B00090A8
:1019600001910C034F00CE0F610A009CB046640F3A
:101970000C4300997F0DC80011001A001B039C4600
:101980000091019251004B0D9946019B009DD90F8A
:1019900063466A0F5B0A1343EA0094469346C14AC2
:1019A00003900293914500D1CDE0012569404D4659
:1019B0007D1BAA468E4200D180E0002D00DC35E37D
:1019C0004946002900D1DFE0974200D194E1524618
:1019D0000125382A19DC8022029B1204134302934A
:1019E00052461F2A00DDE3E1534620226146029D54
:1019F000D21A9540D9400D43614691400A00511ECC
:101A00008A411543029ADA40A41A451BA842804134
:101A10004042241A230200D43DE16402640A002CEF
:101A200000D147E1200000F0BBFB0300083B202170
:101A30002800CA1AD0409C4002009D4022439F4289
:101A400000DD77E1D81B0130091A2C008D40C4401D
:101A50006B1E9D411300C2408B402543002714009C
:101A60001D436B0709D00F232B40042B05D02B1DE2
:101A7000AB42AD416D4264191D00230200D440E128
:101A8000884A0137974200D101E101264346864941
:101A9000ED0821404A072A437C054D022D0B640DB9
:101AA0001E4024052C43F60734431000210005B0E6
:101AB000F0BCBB46B246A946A046F0BD002D00DCF6
:101AC000D0E24946002900D0D4E06146029B194388
:101AD00000D12BE1691E012D00D1D9E1954200D141
:101AE0000AE10125382917DC8A4653461F2B00DD01
:101AF000E7E12022D21A029B614693401D00534623
:101B0000D940634693401A000D43511E8A41534603
:101B10001543029ADA40A4182D18854280414042AC
:101B20002418230200D4B6E05E4B01379F4200D157
:101B3000ADE001215C4B6A081C4029400A43E507DF
:101B4000154364088DE7594A029B92466246BA449F
:101B50001A432CD08E422ED05246002A60D0002F3D
:101B600000D1DBE063460E00029CD8086207024306
:101B7000E4081300234300D154E280252D032543BC
:101B80002D03484C2D0B8CE76146029B194300D175
:101B9000CCE029000139012D00D188E1954200D126
:101BA000AAE00125382900DD2FE78A4618E701223F
:101BB00051408E42D0D15346002B00D1BEE0002FC1
:101BC00000D038E1CA462200024300D1E2E1534688
:101BD000591E012B00D10DE2324A924500D1D2E1CB
:101BE0000127382913DC1F2900DDEEE12022029BAA
:101BF000521A250007009A46CC4090409540CF40AD
:101C0000A244421E904153462F43074302933D0096
:101C1000654465459241029B52424F46D41880E785
:101C2000234A7D1C154200D0AAE062462500029B93
:101C300005431A43002F00D0F5E0002D00D16BE1E1
:101C4000002A00D152E16346C51A029BE21AA8425B
:101C50009B415B42D31A1A0200D4D5E163461D1A98
:101C6000AC4592410126029B52421C1B8846A41A95
:101C70000E40F6E697423FD052460125382A00DD55
:101C80004AE78022029B1204134302932DE73C0093
:101C90000025002205E707232B40002B00D0E2E6B9
:101CA0006BE0C046FF070000FFFF7FFF01F8FFFF6A
:101CB000FE070000280000F073FA030018331F2B02
:101CC00000DCB4E62A00083882409F4200DDB9E01B
:101CD000DB1B581C1F2800DCA0E115001F3BDD406A
:101CE000202805D040231B1A9A40531E9A411543C1
:101CF000072300272B40D0E7C00862070243E4080F
:101D000037E7EA0863071A43D34BE4089F4200D140
:101D10002FE72403250B7C05640DC2E6CA4622008A
:101D2000024358D163460E00029C0393039B57461F
:101D3000DA08E7E7C94CFF1A144092E6C84D7A1C4E
:101D40002A4200D084E022000243002F00D0EFE0BE
:101D5000002A00D1E5E0624602990A4300D1C5E0BD
:101D60006346C5188C46854280416444404224182D
:101D7000230202D5B94B01371C40BA460395D5E77B
:101D80006246851AA842924152429146029BE31A4A
:101D90001A004B46D21A130091461A026CD44A46D6
:101DA0004C462A4300D03AE600260024002578E677
:101DB000029953460D00203AD540202B06D04022F0
:101DC000D21A0B00934062461A4393465B465A1E52
:101DD00093411D4319E653465A1E012B00D1C6E01C
:101DE0009D4EB24500D1BDE688460E000125382A39
:101DF00010DC1F2A7FDC20212500891A070088407B
:101E00008D40D740D440411E8841029B3D431B1B5F
:101E1000054302936246551BAC459241029B5242D8
:101E20004F469C1AF6E5002D00D0B7E0002A00D1FD
:101E3000F0E001260E4063460298D90842070A43A3
:101E4000C40896E6854CFF1A14406207E40860E770
:101E500081498A4200D1C9E06346C118814280416C
:101E6000029B4042E3181B18DD075C080723490862
:101E70000D4317002B4010E763461D1AAC459241F5
:101E80000126029B52421C1B8846A41A0E40C6E53E
:101E90006346C518029B854280419C46404264448B
:101EA00024180127230200D4F5E6022741E6634601
:101EB000C51AA8428041029B4042E41A0127241A15
:101EC000A8E5029D52462B00203AD3401900534604
:101ED000202B06D04022D21A2B00934062461A4390
:101EE00093465D466B1E9D410D4315E66207C00893
:101EF0000243E4080DE7110027002039CF40202AD3
:101F000005D040218A1A9440250005430395039D7E
:101F10006A1E95413D437DE7002A00D144E7012632
:101F20000E406346D908029B5A070A43DC08F0E6D4
:101F3000002A28D06246029FC0083A4300D1DCE65E
:101F4000620710438022E4081203144209D0FD08FE
:101F5000154206D1634601262C00D8087B0718439A
:101F60000E40420FC000C0085207024301E663461C
:101F70001D1AAC459241029B52421C1B0E00884622
:101F80000127A41A46E56346D908029B5A070A436B
:101F9000DC08EEE56346029C0393C7E6C008002A0E
:101FA00000D1AAE6620710438022E408120314421B
:101FB000D7D0029FFD081542D3D163460126D80829
:101FC0007B072C0018430E40CBE70A002700203A7D
:101FD000D740202905D04022521A944025000543BD
:101FE0000395039D6A1E95412F4310E614000025BA
:101FF000002256E5029B60449946604592414C445C
:1020000052420500A4184CE71A001C002A4300D0D5
:10201000B3E6C9E6802400262403AEE5202100258E
:10202000091A17E5002200250B4C3AE5002D00D1D6
:10203000F6E54B46DA1B9246002F00D16FE6382AB0
:1020400005DC80263604344388460E00D1E68846F7
:102050000E000125DEE6C046FF070000FFFF7FFF00
:10206000FE070000002D00D168E64B46D91B002F6B
:1020700001D18A46A7E50127382900DDC7E580227E
:1020800012041443AFE5C046F0B5C6461E03360B36
:10209000B0460D4E0C034D005F0000B5240B6D0DD6
:1020A0007F0DB5420BD0084900208F4204D146462F
:1020B00016433000431E984180BCB846F0BD04432F
:1020C0000120002CF8D1EEE7FF0700000B00020012
:1020D00070B5164D0C0382B04900002000920193A8
:1020E000240B490DDE0FA94204DD1148814203DDB6
:1020F000104BF01802B070BD8020400320430E4CFE
:10210000641A1F2C08DD0D4B5B1AD840030058429F
:10211000002EEFD11800EDE7094B009A9C46030012
:1021200061448B40E2401343F1E7C046FE030000E8
:102130001D040000FFFFFF7F3304000013040000B4
:10214000EDFBFFFF70B5002816D0C317C5185D4022
:10215000C40F280000F024F8104B1B1A5B055B0D20
:102160000A2814DC02002E00153296400B22121AA7
:10217000D5402D032D0B03E000240023002500266D
:102180001B052B43E40723433000190070BD0B38B7
:1021900085402D0300262D0BF2E7C0461E040000EB
:1021A0001C2101231B04984201D3000C10391B0A87
:1021B000984201D3000A08391B09984201D300094B
:1021C000043902A2105C40187047C04604030202A2
:1021D00001010101000000000000000020484269E8
:1021E0008023DB02134343611E4B196880221205D2
:1021F0000A431A601968802292050A431A60196816
:10220000802212060A431A601968802252040A4387
:102210001A6099698022520111439961C369802132
:10222000C9010B43C361104B186801431960196859
:10223000182001431960196814380143196059685E
:102240000A435A605A6802435A605968E022D20031
:102250000A435A601A6840210A431A607047C04610
:1022600000100240000400480038004082B0002303
:1022700001934300181804E0C046C046019B013397
:102280000193019B8342F7D302B0704770B50500FC
:102290000C00274A916980235B050B439361012061
:1022A000FFF7E4FF234B06221A70234B9B68DB07E2
:1022B000FBD5214BDB681E4EB26980235B011343C3
:1022C000B3611E48FFF7D2FFB26980235B05134359
:1022D000B3610120FFF7CAFF164B02221A70164B9A
:1022E0009B68DB07FBD5144BDB682B0A114A137084
:1022F000114B9B68DB07FBD50F4BDB680D4B1D704B
:102300000D4B9B68DB07FBD50B4BDB68094B1C7047
:10231000094B9B68DB07FBD5074BDB68044A9169D7
:1023200080235B010B4393610448FFF79FFF70BD5F
:10233000000400480C3800400038004088130000BA
:1023400010B504001B4A916980235B050B43936120
:102350000120FFF78BFF184B03221A70174B9B6865
:10236000DB07FBD5154BDB68230A134A1370134BAD
:102370009B68DB07FBD5114BDB680F4B1C700F4BC9
:102380009B68DB07FBD50D4BDB680B4B42221A70B9
:102390000A4B9B68DB07FBD5084BDC68E4B2054AB7
:1023A000916980235B010B4393610548FFF75EFF52
:1023B000200010BD000400480C38004000380040E8
:1023C00088130000F0B5C64600B58CB00AAD0822EF
:1023D0000021280002F02CF81822002104A802F0A5
:1023E00027F8274B5A698021C9030A435A615A6961
:1023F0000A400392039A5A69802189020A435A616A
:102400005A690A400292029A5A698021C9020A4313
:102410005A615B690B400193019B1A4F80239846D8
:10242000BB62194A93680F218B4393609022D205B7
:10243000D3680C398B4301242343D36013688B4347
:1024400013600A942C7100266E71AC71280000F0A4
:10245000B1FC43460493059406960796089604A992
:10246000380000F0EEFB00220021052001F09CF86E
:10247000052001F09DF80CB080BCB846F0BDC04608
:1024800000100240000400480000014082B04300F8
:1024900018180023019304E0C046C046019B013395
:1024A0000193019B8342F7D302B0704770B51420AB
:1024B000FFF7ECFF0A4CA36980252D022B43A36193
:1024C0001420FFF7E3FFA26980231B061343A361D7
:1024D0001420FFF7DBFFA3691D43A56170BDC04653
:1024E0000008004810B50400454A91698023DB01CB
:1024F0000B43936143B2002B46DB9022D2059169D6
:1025000080231B060B439361630645D59022D205B9
:10251000916980235B010B439361A30644D5394A3B
:10252000916980239B000B439361E30643D5354AB1
:10253000916980235B000B439361FFF7B7FF23078B
:1025400040D59022D205916980231B020B439361F1
:1025500063073FD59022D205916980235B010B432D
:102560009361A3073ED5274A916980239B000B43C3
:102570009361E4073DD5234A916980235B000B43B7
:102580009361FFF793FF10BD9022D20591698023DC
:102590001B020B439361B7E79022D2059169802318
:1025A0005B050B439361B8E7164A916980239B044E
:1025B0000B439361B9E7134A916980235B040B4392
:1025C0009361BAE79022D205916980231B060B43E1
:1025D0009361BDE79022D205916980235B050B438F
:1025E0009361BEE7074A916980239B040B43936183
:1025F000BFE7044A916980235B040B439361C0E702
:10260000000800480004004870B50500002403E0FD
:10261000FFF768FF0134E4B2285D0028F8D170BDEF
:1026200010B50400474A91698023DB050B43936191
:1026300043B2002B49DB9022D205916980231B060F
:102640000B439361630648D59022D205916980239C
:102650005B010B439361A30647D53B4A91698023F5
:102660009B000B439361E30646D5374A916980236B
:102670005B000B439361FFF719FF230743D59022BB
:10268000D205916980231B020B439361630742D5F6
:102690009022D205916980235B010B439361A307CC
:1026A00041D5294A916980239B000B439361E4073C
:1026B00040D5254A916980235B000B439361FFF766
:1026C000F5FE2248FFF7E2FE10BD9022D205916987
:1026D00080231B020B439361B4E79022D2059169DA
:1026E00080235B050B439361B5E7174A916980230B
:1026F0009B040B439361B6E7134A916980235B0403
:102700000B439361B7E79022D205916980231B06A2
:102710000B439361BAE79022D205916980235B0550
:102720000B439361BBE7084A916980239B040B43E9
:102730009361BCE7044A916980235B040B43936176
:10274000BDE7C0460008004800040048B80B000080
:1027500010B51B4B5969802292020A435A6159698C
:102760008022D2020A435A615969802212030A4325
:102770005A619022D20511688223DB050B43136056
:10278000104A1168A023DB020B4313600E4A116844
:10279000A023DB050B4313600C48FFF777FE3320C3
:1027A000FFF73EFF3220FFF73BFF0C20FFF738FF1B
:1027B0002820FFF735FF0120FFF732FF10BDC0468C
:1027C0000010024000040048000800483075000076
:1027D00070B50400FFF7B6FC01F06AFE00220E4B54
:1027E000FDF746FEFFF772FC0500012101F036FD02
:1027F0000600013D0BE00A212000FDF7F5FD303118
:102800007155013D0A212000FDF708FD0400002D4F
:10281000F1DA300070BDC0460000F03F10B500F0A6
:10282000B1FA64280AD90C4BDA6AF423FF339A42CE
:1028300008D0094BDA6A094B9A4207D0012000F010
:1028400095FF10BD044B054ADA62F7E7024BF4220C
:10285000FF32DA62F2E7C04600100040E7030000F2
:1028600010B5044801F0C0F88021034800F074FF5F
:1028700010BDC046C80000200004004800B583B069
:10288000084801F0B1F80020FFF75AFD6B46D871F7
:1028900007331800FFF7B8FE0120FFF7C1FE03B0B1
:1028A00000BDC0468000002070B5084C200000F03C
:1028B00071FC6421200000F0BFFC200000F020FD2E
:1028C0000500200000F096FC280070BD5801002093
:1028D0007047000010B5024800F018FD10BDC0465A
:1028E0005801002072B6FEE700B585B00C22002129
:1028F00001A801F09DFD2148214B036000234360A6
:102900008360C36001220261042141610376437642
:102910008376C376C221FF31C16103629E39FF39DC
:102920004354826200F074FB002822D106230193F5
:1029300080235B01029380235B0503930F4801A969
:1029400000F04CFD002816D10D4A916880231B062B
:102950000B4393600A4B9B68002BFBDB084A936890
:1029600001210B439360064B1B68DB07FBD505B0C9
:1029700000BDFFF7B7FFFFF7B5FFC04658010020C5
:102980000024014000B58FB0102200210AA801F0F8
:102990004FFD0822002108A801F04AFD1C22002159
:1029A00001A801F045FD2048204B0360002343604F
:1029B00083601F4AC2600361836101F015F900283A
:1029C00028D180235B010A9317480AA901F02AFA4B
:1029D000002821D1144801F033F900281ED100232A
:1029E00008930993104808A901F02CFB002817D17F
:1029F0006023019300230293039305930A4808225E
:102A000001A901F08BF900280CD1074801F0CEFB99
:102A10000FB000BDFFF766FFFFF764FFFFF762FF2F
:102A2000FFF760FFFFF75EFF100100200004004089
:102A30007FBB000010B50C480C4B03600C4B43608F
:102A4000002383600B4AC26003614361803383616A
:102A500001F0CAF8002804D1074B802292031A60C3
:102A600010BDFFF73FFFC04680000020004401403A
:102A70003F1F0000E703000000E100E000B583B065
:102A800008220021684601F0D3FC1248124B036073
:102A9000124B436000238360F423FF33C360743B15
:102AA000FF3B836101F0A0F800280ED100230093C2
:102AB00001930848694601F0C5FA002807D1084B80
:102AC000802292021A6003B000BDFFF70BFFFFF7F0
:102AD00009FFC046C8000020001000403F1F000052
:102AE00000E100E010B5244A136801218B43136014
:102AF000214B1B68DB07FBD4204A136801210B43E1
:102B000013601E4B1B689B07FBD51C4A1368F821FA
:102B10008B4378390B431360536B7F390B435363FB
:102B2000164B5B6B9B07FBD5144B5A6BF8218A4302
:102B300078390A435A635A6870318A435A605A682E
:102B40000F490A405A605A6803218A435A600B4B66
:102B50005B680C221A42FAD10A4801F04FFB0320AD
:102B600000F0CCF8002805D1044A536B04218B43B4
:102B7000536310BDFFF7B6FE002002400010024074
:102B8000FFF8FFFF00127A00F0B583B000F0DEF826
:102B9000FFF7A8FFFFF722FBFFF714FCFFF7A4FEE7
:102BA000FFF7F0FEFFF746FFFFF768FFFFF7D0FDE6
:102BB0001A4800F0DDFE1A4800F0DAFE1948082134
:102BC00001F0C2F900241EE0E600B6B2164B1F5D0C
:102BD0006A46164B21CB21C23800FFF7F9FD0500EC
:102BE00039003000FFF752FBFA26B600300000F043
:102BF000CFF82800FFF708FD300000F0C9F80120E9
:102C0000FFF70EFD0134052CDEDDFFF74DFEFFF76B
:102C10005FFE044B1B68D863F7E7C046C80000207E
:102C2000800000201001002000000020C44900089E
:102C3000FEE7FEE77047704710B500F097F810BD4B
:102C40007047F0B5002216E00B699C46C4682B0063
:102C50006B435E00F618F743B44366465E43344365
:102C6000C4604C68022C26D04D6804683C406B431D
:102C70002343036001320C682300D3403BD001237F
:102C8000934025001D401C42F4D04B68013B012BB2
:102C9000DAD88F6883682C006C4366003619B3431A
:102CA0007C43234383600E68CC684368B34374431A
:102CB00023434360C8E7FF2D0DD84C69A446066A3C
:102CC0001C006C436C4325012D1BAE4365466C43D1
:102CD00034430462C8E74C69A446466A2D0A2C00B6
:102CE0006C436C436C4325012D1BAE4365466C431E
:102CF00034434462B8E70020F0BD000010B5040082
:102D00000F4B1978FA208000FDF7FEF901000D4BFA
:102D10001868FDF7F9F900F057FC00280DD1032CD5
:102D200001D901200AE0013000222100404200F0D8
:102D30003BFC054B1C60002000E0012010BDC0469C
:102D40000C000020080000201000002010B5064AEA
:102D5000136810210B4313600320FFF7CFFF01F02E
:102D6000A9F9002010BDC04600200240034A1168A6
:102D7000034B1B785B1813607047C0469801002016
:102D80000C000020014B18687047C04698010020D5
:102D900070B50400FFF7F6FF0500631C02D0044B7A
:102DA0001B78E418FFF7EEFF401BA042FAD370BD7A
:102DB0000C00002010B503000079002850D01A68DC
:102DC000002A57D05879012818D0022820D000288E
:102DD0000BD001209A79002A4BD0022A2CD0032A4A
:102DE00034D0012A1ED0012043E023494C6894438B
:102DF0004C601A680C6822430A60EBE71E490868B9
:102E0000904308601A68486802434A600020E1E77E
:102E10001949086802430A601A68486802434A6010
:102E20000020D7E71C68144AD168A143D1601B6811
:102E300091680B4393601CE01C680F4A9168A143A2
:102E400091601B68D1680B43D36012E019680A4A8D
:102E50009468214391601B68D1680B43D36008E0FC
:102E60001C68054A1168A1431160196853688B43B7
:102E7000536010BD0020FCE70004014070B5040061
:102E8000026893685B0725D593685B0706D593684E
:102E90009B0703D4936810210B439360FFF772FFE5
:102EA000050023689B685B0712D5FFF76BFF401B8B
:102EB0000228F6D923689B685B07F2D5A36B102222
:102EC0001343A363E36B0F3A1343E363012002E070
:102ED000002000E0002070BD70B504000268916819
:102EE00003230B40012B01D0002070BD1368DB07CA
:102EF00002D4D3681B0431D5916805230B40012B04
:102F000009D0A36B10221343A363E36B0F3A13435F
:102F1000E3630120E9E7936802210B439360236890
:102F200003221A60FFF72EFF050023689B68DB076A
:102F300012D5FFF727FF401B0228F6D923689B68AC
:102F4000DB07F2D5A36B10221343A363E36B0F3AA5
:102F50001343E3630120C8E70020C6E70020C4E76D
:102F600030B583B0040000230193036899680322FD
:102F70000A40012A14D09968224A114218D19A684D
:102F800001210A439A60204B18682049FDF7BCF8DC
:102F90000190019B002B15D0019B013B0193F8E7A9
:102FA0001A68D2072BD4DA681204E4D5002024E092
:102FB000A36B10221343A363E36B0F3A1343E36342
:102FC00001201AE0FFF7DEFE050023681B68DB071F
:102FD00012D4FFF7D7FE401B0228F6D923681B68DE
:102FE000DB07F2D4A36B10221343A363E36B0F3A06
:102FF0001343E363012000E0002003B030BD002054
:10300000FBE7C046170000800800002040420F0088
:1030100070B5041E00D1B4E0836B002B00D180E0BA
:10302000A36BDB0600D5A6E023689A68042108009C
:103030001040114200D09EE0A26B53490A40063175
:10304000FF310A43A263996803220A40012A6ED025
:10305000DA6818218A43A1680A43DA602268136992
:103060009B009B0861680B4313612268D368474942
:103070000B40D360237E9B03627ED2031343A17E69
:103080004A031343A26A012A58D0802252011343F3
:10309000E26813432269022A52D003432422A25C2D
:1030A00052001343E27E012A4CD0E269C221FF3173
:1030B0008A4202D0216A0A4313432168CA681A432C
:1030C000CA60E26A802149058A420DD0012A0BD0EC
:1030D000022A09D0032A07D0042A05D0052A03D0E2
:1030E000062A01D0072A0AD12068416907229143A4
:1030F000416120684169E56A2A400A4342612268C9
:10310000D26823490A409A422BD0A36B12229343E0
:10311000023A1343A363E36B0F3A1343E3630120C3
:103120002EE0C3633422835400F0DCFF78E71A6892
:10313000D2079AD4DA68120497D489E70200A6E786
:103140000420AAE7002903D1802252021343ACE7EE
:10315000A26B20210A43A263E26B1F390A43E26398
:10316000A3E70023E363A36B03229343023A1343D1
:10317000A363002004E0A36B10221343A363012088
:1031800070BD0120FCE7C046FDFEFFFF1902FEFFF7
:10319000E7FF3F8310B5040003689B685B0723D4F7
:1031A0003423C35C012B21D034230122C254437E3B
:1031B000012B14D10020A26B0D4B1A4080235B0021
:1031C0001343A3630023E3633422A3542368183A10
:1031D0001A602268936804210B43936010BDFFF7C7
:1031E000BFFE0028FAD1E6E70220F7E70220F5E764
:1031F000FEF0FFFF10B504003423C35C012B17D091
:1032000034230122C254FFF739FE002803D03423AF
:103210000022E25410BD2000FFF75EFE0028F6D128
:10322000A36B044A13400432FF321343A363EEE757
:103230000220EFE7FEFEFFFFF8B504000E0047692D
:10324000082F04D00368DB68DB0718D40C27FFF7CE
:1032500099FD050023681A6817421FD1731CF9D025
:10326000002E15D123681B681F42F3D1A36B0422E3
:103270001343A36334230022E254032032E0836B20
:1032800020221343836334230022C254012029E007
:10329000FFF778FD401BB042DCD9E3E7A16B802249
:1032A00092000A43A263D968C0221201114213D1CD
:1032B000A27E002A10D11A6812070DD59A6852070B
:1032C00011D45A680C218A435A60A36B0B4A1340ED
:1032D0000432FF321343A363207E00280CD12368FD
:1032E0000C221A60F8BDA36B20221343A363E36B87
:1032F0001F3A1343E363EFE70020F3E7FEFEFFFF0F
:103300000368186C704770477047704770B50400C9
:1033100003681D685E686A0701D5720703D42A072F
:1033200027D5320725D5A26BD20604D4A16B802203
:1033300092000A43A263D968C0221201114212D13D
:10334000A27E002A0FD12A070DD59A6852072DD4E4
:103350005A680C218A435A60A36B1F4A13400432F7
:10336000FF321343A3632000FFF7CDFF23680C2235
:103370001A602B0601D5330621D4ED0615D5F606C5
:1033800013D5A36A012B03D02368DB68DB0709D5BB
:10339000E36B02221343E36323680E321A602000BA
:1033A000FFF7B3FF236810221A6070BDA36B2022C1
:1033B0001343A363E36B1F3A1343E363D3E7A26BA7
:1033C00080235B021343A3632000FFF79DFF236864
:1033D00080221A60D1E7C046FEFEFFFF30B583B001
:1033E0000400002301933433C35C012B00D17FE040
:1033F00034230122C254026893685B076AD4486888
:103400003C4B98424BD0936A0D680120A84003437F
:103410009362E36A80225205934213D0013B062B4C
:1034200010D988682268556907232B40984209D033
:103430005069072398435061206842698D682B408A
:10344000134343610B681A00103A022A4CD82A4AE7
:103450001268102B0ED0112B09D080235B0413436C
:10346000254A13600B68102B07D0002037E080231B
:10347000DB03F4E780231B04F1E7204B18682049A5
:10348000FCF742FE83001B185B00019302E0019BE6
:10349000013B0193019B002BF9D100201FE0936AAF
:1034A0000D680120A840834393620B681A00103A0C
:1034B000022A1BD8104A1268102B09D0112B05D0F4
:1034C000104B13400C4A1360002008E00E4BF8E745
:1034D0000E4BF6E7836B20221343836301203423D2
:1034E0000022E25403B030BD0020F8E70020F6E7E8
:1034F0000220F7E701100000082701400800002023
:1035000040420F00FFFFFFFEFFFFBFFFFFFF7FFFF7
:1035100070B5002811DB8308134DC0339B005C5944
:1035200003221040C000FC3216008640B4438901DB
:103530000A40824022435A5170BD0F230340083B8A
:103540009B0806339B00094A944663445C68032247
:103550001040C000FC3215008540AC4389010A4090
:10356000824022435A60E7E700E100E000ED00E01E
:10357000013880235B0498420FD2094A5060094801
:10358000036A1B021B0AC02109060B4303620023C6
:10359000936007331360002070470120FCE7C046AA
:1035A00010E000E000ED00E010B5FFF7B1FF10BD46
:1035B000002805DB1F22024001239340014A1360CB
:1035C0007047C04600E100E010B5FFF7D1FF10BD25
:1035D000F0B583B0002356E086685F000324BC404A
:1035E000A643CC68BC4034438460446894434E682E
:1035F0003609012232409A402243426053E0DE08FD
:103600000836B600375805321A4092000F2494400D
:10361000A7430C69944022003A43325056E00326F7
:1036200000E00026A64034003C4302329200444EA3
:103630009451444A9768EA433E00AE434C68E40222
:1036400001D53E002E433F4CA660E7683E00164081
:103650004C68A40201D53E002E433A4CE6606768F0
:103660003E0016404C68A40301D53E002E43354C65
:103670006660266832404C68E40301D52A00324374
:10368000304C226001330C682200DA4056D001220F
:103690009A40250015401442F4D04E68032434406B
:1036A000013C012C98D94C6803222240032A08D0FF
:1036B000C4685E000322B24094438A68B240224349
:1036C000C2604C6803222240022A98D004685E003F
:1036D00003221700B740BC434F683A40B240224330
:1036E00002604C68C02292021442CBD0164CA669EC
:1036F00001221643A661A46922400192019A9A0808
:10370000941CA4000E4EA75903241C40A4000F26AD
:10371000A640B7439026F605B04282D00B4EB04289
:1037200008D00B4EB04207D00A4EB04200D176E727
:10373000052677E7012675E7022673E703B0F0BD9B
:103740000000014000040140001002400004004855
:1037500000080048000C0048426913000B401B049D
:1037600091430B43836170477047000010B5054BD0
:103770005B69184200D110BD024B5861FFF7F4FF9E
:10378000F9E7C0460004014030B5036A01229343C3
:103790000362056A426883697324A3430C681C436F
:1037A00002239D438B682B43154DA84208D0154D2D
:1037B000A84205D0144DA84202D0144DA84206D10B
:1037C0000825AB431D00CB682B430425AB430C4DB0
:1037D000A84208D00B4DA84205D00B4DA84202D0FC
:1037E0000A4DA84205D10A4D2A404D6915438A6900
:1037F0002A43426084614A684263036230BDC04626
:10380000002C0140004001400044014000480140BC
:10381000FFFCFFFF30B5036A184A13400362046AD5
:103820004268C3697325AB430D681D43144B1C40AC
:103830008B681B022343134CA04209D0124CA042B8
:103840000DD0124CA0420AD0114CA0420FD106E07C
:10385000104C1C40CB681B0223430F4C23400F4CE1
:1038600022404C69240114438A69120122434260B8
:10387000C5614A68C263036230BDC046FFFEFFFFF8
:10388000FFFDFFFF002C01400040014000440140CB
:1038900000480140FFF7FFFFFFFBFFFFFFCFFFFFE7
:1038A00030B5036A134A13400362046A4368C2696D
:1038B000114D2A400D682D021543104A14408A68A4
:1038C000120322430E4CA04208D00E4CA04205D059
:1038D0000D4CA04202D00D4CA04204D10C4C1C4017
:1038E0004B699B0123434360C5614B6803640262DB
:1038F00030BDC046FFEFFFFFFF8CFFFFFFDFFFFF84
:10390000002C0140004001400044014000480140BB
:10391000FFBFFFFF30B5036A046A0125AC430462B0
:103920008469EF35AC43120122430A24A3430B43BD
:103930008261036230BD000030B5036A1024A343E6
:1039400003628469036A054D2C4012032243A024BC
:10395000A343090119438261016230BDFF0FFFFFDC
:103960008368702293430B43693A13438360704723
:103970003D23C35C012B26D13C330222C254026892
:10398000D36801210B43D3600368114A93420FD0DF
:103990008022D20593420BD00E4A934208D00E4AA1
:1039A000934205D01A6801210A431A6000200BE0F7
:1039B000996807220A40062A07D01A6801210A439B
:1039C0001A60002000E0012070470020FCE7C0469C
:1039D000002C014000040040004001407047704747
:1039E000704770477047704710B50400026813694C
:1039F0009B070FD5D3689B070CD503235B4213614C
:103A00000433037703689B699B0763D0FFF7E9FFE3
:103A100000232377226813695B0712D5D3685B07FD
:103A20000FD505235B4213610733237723689A6917
:103A3000C0239B001A4253D02000FFF7D2FF00237F
:103A40002377226813691B0710D5D3681B070DD590
:103A500009235B4213610D3323772368DB699B07DE
:103A600045D02000FFF7BDFF0023237722681369AC
:103A7000DB0612D5D368DB060FD511235B42136139
:103A8000193323772368DA69C0239B001A4235D0A3
:103A90002000FFF7A6FF0023237722681369DB07C6
:103AA00002D5D368DB0730D4226813691B0602D520
:103AB000D3681B0630D4226813695B0602D5D3682D
:103AC0005B0630D4226813699B0602D5D3689B0637
:103AD00030D410BDFFF784FF2000FFF783FF97E786
:103AE0002000FFF77DFF2000FFF77CFFA7E7200005
:103AF000FFF776FF2000FFF775FFB5E72000FFF71F
:103B00006FFF2000FFF76EFFC5E702235B421361E2
:103B10002000FFF764FFC7E781235B4213612000A9
:103B200000F0C7FAC7E741235B4213612000FFF7AB
:103B30005AFFC7E721235B421361200000F0B8FA67
:103B4000C7E700000368214A904206D08022D205D0
:103B5000904202D01E4A904203D1702293434A6899
:103B600013431A4A904212D08022D20590420ED0BE
:103B7000174A90420BD0174A904208D0164A9042FA
:103B800005D0164A904202D0154A904203D1154AF8
:103B90001A40CB681343802293434A69134303605E
:103BA0008B68C3620B688362084B984208D00A4B4B
:103BB000984205D0094B984202D0094B984201D156
:103BC0000B690363012343617047C046002C014029
:103BD000000400400020004000400140004401403B
:103BE00000480140FFFCFFFF70B5041E26D03D23B6
:103BF000C35C002B1CD03D2502236355210001C965
:103C0000FFF7A0FF01234622A354083AA354013230
:103C1000A3540132A3540132A3540132A3540132FC
:103C2000A3540132A3540132A3546355002070BD44
:103C30003C330022C25400F085FADCE70120F6E7AD
:103C400070B5041E26D03D23C35C002B1CD03D253F
:103C500002236355210001C9FFF774FF01234622A7
:103C6000A354083AA3540132A3540132A35401329D
:103C7000A3540132A3540132A3540132A35401329C
:103C8000A3546355002070BD3C330022C254FFF79B
:103C9000A5FEDCE70120F6E770B5036A1022934326
:103CA0000362026A44688369164D2B400D682D0239
:103CB0001D4320239A438B681B011343124A9042F1
:103CC00009D0124A90420ED0114A90420BD0114AAC
:103CD000904210D107E0802293431E00CB681B0165
:103CE0003343403A93430C4A14404A6992002243BA
:103CF0008C69A4001443446085614A68826303624E
:103D000070BDC046FF8CFFFF002C01400040014009
:103D10000044014000480140FFF3FFFF70B504007C
:103D20000D003C23C35C012B00D16AE03C23012140
:103D3000C154082A50D01CD8002A38D0042A16D1E1
:103D400000682900FFF7A8FF2268916980231B0102
:103D50000B439361226893692B490B40936121685F
:103D60008B692A69120213438B6100201BE0080053
:103D700019E00C2A16D100682900FFF791FD22688E
:103D8000D16980231B010B43D3612268D3691E498B
:103D90000B40D3612168CB692A6912021343CB61BE
:103DA000002000E001203C230022E25470BD0068A6
:103DB0002900FFF7E9FC2268936908210B4393610E
:103DC0002268936904398B43936122689369296956
:103DD0000B4393610020E6E700682900FFF71AFD16
:103DE0002268D36908210B43D3612268D36904395F
:103DF0008B43D3612268D36929690B43D3610020C7
:103E0000D1E70220D2E7C046FFFBFFFF30B5846850
:103E1000034D2C401B0213430B432343836030BDEF
:103E2000FF00FFFF10B5040008003C23E35C012BFA
:103E300000D177E03C230122E25401330132E25405
:103E40002268936838490B409360016860294FD01D
:103E500029D8402957D00CD9502922D14168C268AD
:103E60002068FFF757FD20685021FFF779FD0020FB
:103E700005E020290ED009D930290BD001203D239F
:103E80000122E254013B0022E25410BD002901D07E
:103E9000102904D12068FFF763FD0020EFE701201F
:103EA000EDE70120EBE780225201914236D08022DB
:103EB000920191420DD181684268C3682068FFF782
:103EC000A5FF226891688023DB010B4393600020EB
:103ED000D5E7702924D181684268C3682068FFF75C
:103EE00095FF2268936877210B4393600020C6E713
:103EF0004168C2682068FFF71FFD20686021FFF756
:103F00002FFD0020BBE74168C2682068FFF702FD73
:103F100020684021FFF724FD0020B0E70020AEE735
:103F20000120ACE70220B0E78800FFFF10B51F2397
:103F3000194001248C40036AA3430362036A8A4048
:103F40001343036210BD000010B50400002936D1F0
:103F50003E23C35C013B5A1E9341DBB2002B62D16E
:103F6000002945D13E330222E25420680122FFF7A6
:103F7000DDFF23682E4A934208D02E4A934205D093
:103F80002D4A934202D02D4A934204D1596C80228B
:103F900012020A435A642368254A934238D0802289
:103FA000D205934234D0264A934231D0214A9342DB
:103FB0002ED01A6801210A431A60002034E0042937
:103FC00008D008290DD04123C35C013B5A1E934100
:103FD000DBB2C3E73F23C35C013B5A1E9341DBB214
:103FE000BCE74023C35C013B5A1E9341DBB2B5E7FB
:103FF000042905D0082907D041230222E254B4E75E
:104000003F230222E254B0E740230222E254ACE70D
:10401000996807220A40062A07D01A6801210A4334
:104020001A60002000E0012010BD0020FCE7C0461F
:10403000002C014000400140004401400048014084
:104040000004004030B53C23C35C012B28D03C2346
:104050000122C25401330132C25403685C689D6876
:104060006E3294430A6822435A6003680D4A9342B1
:1040700009D08022D205934205D00B4A934202D048
:104080000A4A934204D1802295434A682A439A609F
:104090003D230122C254013B0022C254002030BD06
:1040A0000220FCE7002C01400004004000400140D9
:1040B0007047704782B00A4B996901221143996198
:1040C00099690A400092009ADA69802149050A43F9
:1040D000DA61DB690B400193019B02B07047C04677
:1040E0000010024010B588B004001422002103A87B
:1040F00000F09EF92268114B9A4201D008B010BD21
:104100000F4B9A69802189000A439A619A690A4093
:104110000192019A5A69802189020A435A615B69B6
:104120000B400293029B402303933D3B049390205A
:1041300003A9C005FFF74CFAE0E7C04600240140A0
:104140000010024084B00368144A934207D0144A16
:1041500093420ED0134A934215D004B07047124ACE
:10416000D16902231943D161D26913400193019BA4
:10417000F3E70D4AD16910231943D161D269134085
:104180000293029BE9E7084B9A69802189020A435E
:104190009A619B690B400393039BDEE70004004098
:1041A00000100040004401400010024010B586B0ED
:1041B00004001422002101A800F03AF922680C4BF7
:1041C0009A4201D006B010BD0A4B5A698021C9023B
:1041D0000A435A615B690B400093009B01230193E2
:1041E00002220292059301A90348FFF7F1F9E9E7DA
:1041F000000400400010024000040048014B186019
:104200007047C046080000200D488546FEF718FD9F
:104210000C480D490D4A002302E0D458C450043321
:10422000C4188C42F9D30A4A0A4C002301E01360F7
:104230000432A242FBD300F015F9FEF7A5FCFEE71D
:10424000002000200000002064000020184A000820
:1042500064000020E8020020FEE7000010B5034BD8
:104260000A000100186800F003F810BD14000020D7
:1042700070B50B0C150C002B1ED1002D0CD189B282
:1042800094B24C43210000F043F8051E1AD02200DE
:10429000002100F0CDF816E02B1C0C1C89B292B264
:1042A0004A439BB2A1B25943140C0C19230C07D1F9
:1042B000240492B21443E5E7002D01D1141CEDE76C
:1042C0000C2303600025280070BD000070B50F4E60
:1042D0000D0031680400002902D100F0B1F830600F
:1042E0002900200000F0ACF8431C03D101256D42E9
:1042F000280070BD0323C51C9D43A842F8D0291A8D
:10430000200000F09DF80130F2D1EFE79C01002081
:10431000F7B50322CB1C9343083305001F000C2B79
:1043200034D20C27B94233D8280000F071F8374E48
:1043300033681C00002C2FD139002800FFF7C6FF7E
:104340000400431C5FD134680094009B002B4AD1C9
:10435000002C52D023682800E3180099019300F044
:104360006FF8019B834248D123682800FF1A390067
:10437000FFF7ACFF013040D02368DB1923603368BE
:104380005A68002A33D1009B336019E0002BC9DA48
:104390000C232B600020FEBD2168C91B20D40B29F3
:1043A0000AD9E2192760A34204D132606368116020
:1043B000536005E05A60F9E76268A3420ED13260AB
:1043C000280000F02DF8200007220B30231D904319
:1043D000C21A9842DFD01B1AA350DCE75A60EFE7FD
:1043E00023006468A6E7009C63680093ADE71A00A9
:1043F0005B68A342FBD10023DAE70C2328002B6083
:1044000000F00EF8C6E70760DAE7C046A00100201A
:1044100010B5024800F04AF810BDC046E002002086
:1044200010B5024800F043F810BDC046E00200207D
:1044300003008218934200D1704719700133F9E7E5
:10444000002370B5064D040008002B6000F098FAB8
:10445000431C03D12B68002B00D0236070BDC046E5
:10446000DC02002070B500260C4C0D4D641BA4101E
:10447000A64209D1002600F099FA0A4C0A4D641BA5
:10448000A410A64205D170BDB300EB589847013681
:10449000EEE7B300EB5898470136F2E7104A000800
:1044A000104A0008144A0008104A00087047704774
:1044B000F8B504000D0000F037F8220006000F00E8
:1044C0002B0020002900FDF7DFFD002815D1002278
:1044D000002320002900FBF7ADFF00280DD00022AB
:1044E000002320002900FBF795FF002808D000F0EA
:1044F00057FA22230026074F036030003900F8BD29
:1045000000F04EFA21230360034800F007F806008C
:104510000F00F2E70000F0FF0C4A000800200149FC
:104520007047C0460000F87F8022F0B50B00040001
:104530000D0085B05203914226DA4A005208024328
:1045400007D10022002300202949FCF7F5FA05B025
:10455000F0BD002905DA0200FDF7FAF90022002378
:10456000F3E70022234BFCF72BFF362204000D005B
:104570000B00524220498B4208DD22002B00200014
:104580002900FBF775FFE2E70022F3E71B49181546
:1045900040188018C20F1B031B0B80180392009356
:1045A000FDF7D0FD039A164B06009B1A009A1B05D7
:1045B0001A431500134B144A0F00FCF701FF00903B
:1045C00001912000290000F029F8104A104BFCF757
:1045D000F7FE009A019BFBF74BFF0E4A0E4B0400BF
:1045E0000D0030003900FCF7EBFE02000B00C6E7BF
:1045F000000050C300005043FFFFEF7F01FCFFFFAE
:10460000FF030000F3FE593D362BF1110EE5261590
:104610007BCBDB3F00609F501344D33F8023F0B53A
:104620005B030E008DB0994223DA4B005B08034315
:1046300007D1002200230020B449FCF77DFA0DB019
:10464000F0BD002906DA02000B00FDF781F9002217
:104650000023F2E7AE4B0022FCF7B2FE36230E0039
:104660005B42AC4A964206DD02000B00FBF700FFFE
:10467000E5E70023F5E7A84C321512193603A74CDD
:10468000D218330B02931B19802464032340A44CDB
:10469000029D5C401B159B182543002200932900B6
:1046A0009F4BFDF755F9029B060002331B030F00D9
:1046B00000221B0B022B64DC0023FBF7ABFE00285F
:1046C00019D0009B002B00D11CE11800FDF73AFD2A
:1046D000944A954B04000D00FCF772FE934A0600C5
:1046E0000F00934B20002900FCF76AFE02000B002C
:1046F00030003900BAE78F4A8F4B30003900FCF7A1
:104700005FFE02000B0000208C49FDF721F932000A
:1047100004000D003B0030003900FCF751FE0B0097
:10472000020029002000FCF74BFE009B0290039141
:10473000002B06D102000B0030003900FDF708F90C
:104740007DE70098FDF7FEFC764A774B04000D00EC
:10475000FCF736FE754A00900191754B2000290048
:10476000FCF72EFE02000B0002980399FDF7F0F80B
:1047700032003B00FDF7ECF802000B0000980199B5
:10478000DCE78023DB05FBF773FE02000B00300043
:104790003900FCF7D1F9049005910098FDF7D2FC9F
:1047A000049A059B0690079110001900FCF708FE7B
:1047B000634A029B9446634402000B930B000890EB
:1047C0000991FCF7FDFD04000D005E4A5E4BFCF70D
:1047D000F7FD5E4A5E4BFBF74BFE22002B00FCF719
:1047E000EFFD5C4A5C4BFBF743FE22002B00FCF71D
:1047F000E7FD5A4A5A4BFBF73BFE089A099BFCF728
:10480000DFFD584A08900991574B20002900FCF71A
:10481000D7FD564A564BFBF72BFE22002B00FCF728
:10482000CFFD544A544BFBF723FE22002B00FCF72C
:10483000C7FD02000B0008980999FBF719FE029AC0
:104840004E4B04009B1A0B9A0D001343002B34DDD2
:1048500000223A4B30003900FCF7B2FD32003B0039
:10486000FCF7AEFD02000B0002900391200029002E
:10487000FBF7FEFD049A059BFCF7A2FD009B0400DC
:104880000D00002B06D102000B0002980399FDF7E2
:104890005FF84FE7234A244B06980799FCF790FDF1
:1048A000224A0090019106980799214BFCF788FD58
:1048B00022002B00FBF7DCFD54E702000B00300068
:1048C0003900FDF745F8049A059BFCF779FD009B3C
:1048D00004000D00002B02D102000B002CE7114A4E
:1048E000114B06980799FCF76BFD104A0090019157
:1048F000069807990E4BFCF763FD02000B002000A1
:10490000290033E70020002199E6C046000050C38B
:1049100000005043FFFFEF7F01FCFFFF645F0900D1
:104920000000F03F0000E0FE422EE63F763C793585
:10493000EF39EA3D555555555555D53F0000E03FF7
:1049400086EBF9FF44523EDF12F1C23FDE03CB9605
:104950006446C73F599322942449D23F93555555F5
:104960005555E53F9FC678D0099AC33FAF788E1D55
:10497000C571CC3F04FA97999999D93F51B806006F
:10498000054A03001168002901D10449116010682B
:10499000C31813607047C046E4020020E8020020FC
:1049A000014B18687047C04614000020F8B5C04697
:1049B000F8BC08BC9E467047F8B5C046F8BC08BCB9
:0449C0009E46704758
:1049C4000000000000000000200C0008120C000889
:1049D400F00B00081C0C0008F00B0008060F000880
:1049E400F00B00081C0C0008120C0008120C000844
:1049F400060F00081C0C0008D80B0008D80B000890
:0C4A0400D80B0008780F0008000000002C
:044A1000E9000008B1
:044A1400C1000008D5
:104A180012410C097049000000127A0001000000E0
:104A2800040000001800002000000000A40100207D
:104A38000C020020740200200000000000000000AA
:104A4800000000000000000000000000000000005E
:104A5800000000000000000000000000000000004E
:104A6800000000000000000000000000000000003E
:044A7800000000003A
:0400000508004209A4
:00000001FF
