:020000040800F2
:1000000000200020FD010008D3010008D5010008F0
:1000100000000000000000000000000000000000E0
:10002000000000000000000000000000D7010008F0
:100030000000000000000000D9010008DB010008FA
:100040004D0200084D0200084D0200084D02000854
:100050004D0200084D0200084D0200084D02000844
:100060004D0200084D0200084D0200084D02000834
:100070004D0200084D0200084D0200084D02000824
:100080004D0200084D020008000000004D0200086B
:100090004D0200084D0200084D0200084D02000804
:1000A0004D0200084D0200084D0200084D020008F4
:1000B0004D020008000000004D0200080000000092
:1000C00010B5064C2378002B07D1054B002B02D02E
:1000D000044800E000BF0123237010BD040000208D
:1000E0000000000098020008044B10B5002B03D05C
:1000F0000349044800E000BF10BDC04600000000F6
:1001000008000020980200080020002011010008CB
:1001100026484169264A1143416126485521C1605C
:100120002549264A0A600022224804690F263440E5
:100130000F2C0DD00F2634400E2C15D00F26344036
:100140000D2C0BD00B2C1BD00C2C13D0072C1BD040
:10015000002A1AD0520000F01DF818E0002A14D02E
:10016000520000F01BF812E0002A0ED0920000F0BE
:1001700011F80CE0002A08D0920000F00FF806E019
:10018000AA230D484361CFE701E00122FFE7FF23E7
:100190001A4007E00A4B013BFDD17047094B013B78
:1001A000FDD1704704484A61BEE7C04600100240D6
:1001B00000000600000000480004004855550000FB
:1001C000C05C1500C027090010B5FFF7A1FF002093
:1001D00010BDFEE7FEE77047704710B500F002F86B
:1001E00010BD7047034A1168034B1B785B181360FE
:1001F0007047C04620000020000000200D488546C2
:10020000FFF7EFFF0C480D490D4A002302E0D458D8
:10021000C4500433C4188C42F9D30A4A0A4C002350
:1002200001E013600432A242FBD300F011F8FFF7A3
:10023000CBFFFEE70020002000000020040000208B
:10024000B80200080400002024000020FEE700009F
:1002500070B500260C4C0D4D641BA410A64209D1AC
:10026000002600F019F80A4C0A4D641BA410A6429F
:1002700005D170BDB300EB5898470136EEE7B300E7
:10028000EB5898470136F2E7B0020008B0020008C8
:10029000B4020008B0020008F8B5C046F8BC08BCBB
:1002A0009E467047F8B5C046F8BC08BC9E467047ED
:0402B000E900000859
:0402B400C10000087D
:0402B8000100000041
:04000005080001FDF1
:00000001FF
