:020000040800F2
:1000000000200020AD0100088301000885010008E0
:1000100000000000000000000000000000000000E0
:100020000000000000000000000000008701000840
:100030000000000000000000890100088B0100089A
:10004000FD010008FD010008FD010008FD01000898
:10005000FD010008FD010008FD010008FD01000888
:10006000FD010008FD010008FD010008FD01000878
:10007000FD010008FD010008FD010008FD01000868
:10008000FD010008FD01000800000000FD0100085E
:10009000FD010008FD010008FD010008FD01000848
:1000A000FD010008FD010008FD010008FD01000838
:1000B000FD01000800000000FD0100080000000034
:1000C00010B5064C2378002B07D1054B002B02D02E
:1000D000044800E000BF0123237010BD040000208D
:1000E0000000000048020008044B10B5002B03D0AC
:1000F0000349044800E000BF10BDC04600000000F6
:10010000080000204802000800200020110100081B
:1001100012484169124A1143416112485521C16098
:100120001149124A0A60002204690F2634400F2C3C
:10013000FFD0002A03D0520000F008F803E00122AB
:1001400000F004F8FFE7FF231A4003E0084B013BEF
:10015000FDD1704704484A61E6E7C04600100240FE
:10016000000006000000004800040048555500004B
:10017000C05C1500C027090010B5FFF7C9FF0020BB
:1001800010BDFEE7FEE77047704710B500F002F8BB
:1001900010BD7047034A1168034B1B785B1813604E
:1001A0007047C04620000020000000200D48854612
:1001B000FFF7EFFF0C480D490D4A002302E0D45829
:1001C000C4500433C4188C42F9D30A4A0A4C0023A1
:1001D00001E013600432A242FBD300F011F8FFF7F4
:1001E000CBFFFEE7002000200000002004000020DC
:1001F000680200080400002024000020FEE7000040
:1002000070B500260C4C0D4D641BA410A64209D1FC
:10021000002600F019F80A4C0A4D641BA410A642EF
:1002200005D170BDB300EB5898470136EEE7B30037
:10023000EB5898470136F2E76002000860020008B8
:100240006402000860020008F8B5C046F8BC08BCAB
:100250009E467047F8B5C046F8BC08BC9E4670473D
:04026000E9000008A9
:04026400C1000008CD
:040268000100000091
:04000005080001AD41
:00000001FF
