:020000040800F2
:10000000002000208D010008630100086501000840
:1000100000000000000000000000000000000000E0
:100020000000000000000000000000006701000860
:100030000000000000000000690100086B010008DA
:10004000DD010008DD010008DD010008DD01000818
:10005000DD010008DD010008DD010008DD01000808
:10006000DD010008DD010008DD010008DD010008F8
:10007000DD010008DD010008DD010008DD010008E8
:10008000DD010008DD01000800000000DD010008BE
:10009000DD010008DD010008DD010008DD010008C8
:1000A000DD010008DD010008DD010008DD010008B8
:1000B000DD01000800000000DD0100080000000074
:1000C00010B5064C2378002B07D1054B002B02D02E
:1000D000044800E000BF0123237010BD040000208D
:1000E0000000000028020008044B10B5002B03D0CC
:1000F0000349044800E000BF10BDC04600000000F6
:10010000080000202802000800200020110100083B
:100110000A4841690A4A114341610A485521C160B0
:1001200009490A4A0A60002201220023084E0133CD
:10013000013EFDD15200DC1F4A61F7E7001002408A
:10014000000006000000004800040048555500006B
:1001500080841E000000000010B5FFF7D9FF0020CA
:1001600010BDFEE7FEE77047704710B500F002F8DB
:1001700010BD7047034A1168034B1B785B1813606E
:100180007047C04620000020000000200D48854632
:10019000FFF7EFFF0C480D490D4A002302E0D45849
:1001A000C4500433C4188C42F9D30A4A0A4C0023C1
:1001B00001E013600432A242FBD300F011F8FFF714
:1001C000CBFFFEE7002000200000002004000020FC
:1001D000480200080400002024000020FEE7000080
:1001E00070B500260C4C0D4D641BA410A64209D11D
:1001F000002600F019F80A4C0A4D641BA410A64210
:1002000005D170BDB300EB5898470136EEE7B30057
:10021000EB5898470136F2E7400200084002000818
:100220004402000840020008F8B5C046F8BC08BC0B
:100230009E467047F8B5C046F8BC08BC9E4670475D
:04024000E9000008C9
:04024400C1000008ED
:0402480001000000B1
:040000050800018D61
:00000001FF
